{
  "_format": "hh-sol-artifact-1",
  "contractName": "OrderBook",
  "sourceName": "contracts/OrderBook.sol",
  "abi": [
    {
      "inputs": [],
      "stateMutability": "nonpayable",
      "type": "constructor"
    },
    {
      "inputs": [],
      "name": "AlreadyInitialized",
      "type": "error"
    },
    {
      "inputs": [],
      "name": "InsufficientLiquidity",
      "type": "error"
    },
    {
      "inputs": [],
      "name": "InvalidInitialization",
      "type": "error"
    },
    {
      "inputs": [],
      "name": "LengthMismatch",
      "type": "error"
    },
    {
      "inputs": [],
      "name": "MarketFeeError",
      "type": "error"
    },
    {
      "inputs": [],
      "name": "MarketStateError",
      "type": "error"
    },
    {
      "inputs": [],
      "name": "NativeAssetInsufficient",
      "type": "error"
    },
    {
      "inputs": [],
      "name": "NativeAssetTransferFail",
      "type": "error"
    },
    {
      "inputs": [],
      "name": "NewOwnerIsZeroAddress",
      "type": "error"
    },
    {
      "inputs": [],
      "name": "NoHandoverRequest",
      "type": "error"
    },
    {
      "inputs": [],
      "name": "NotInitializing",
      "type": "error"
    },
    {
      "inputs": [],
      "name": "OnlyOwnerAllowedError",
      "type": "error"
    },
    {
      "inputs": [],
      "name": "OrderAlreadyFilledOrCancelled",
      "type": "error"
    },
    {
      "inputs": [],
      "name": "PostOnlyError",
      "type": "error"
    },
    {
      "inputs": [],
      "name": "PriceError",
      "type": "error"
    },
    {
      "inputs": [],
      "name": "SizeError",
      "type": "error"
    },
    {
      "inputs": [],
      "name": "TickSizeError",
      "type": "error"
    },
    {
      "inputs": [],
      "name": "TooMuchSizeFilled",
      "type": "error"
    },
    {
      "inputs": [],
      "name": "Unauthorized",
      "type": "error"
    },
    {
      "inputs": [],
      "name": "UnauthorizedCallContext",
      "type": "error"
    },
    {
      "inputs": [],
      "name": "UpgradeFailed",
      "type": "error"
    },
    {
      "anonymous": false,
      "inputs": [
        {
          "indexed": false,
          "internalType": "uint64",
          "name": "version",
          "type": "uint64"
        }
      ],
      "name": "Initialized",
      "type": "event"
    },
    {
      "anonymous": false,
      "inputs": [
        {
          "indexed": false,
          "internalType": "uint40",
          "name": "orderId",
          "type": "uint40"
        },
        {
          "indexed": false,
          "internalType": "address",
          "name": "owner",
          "type": "address"
        },
        {
          "indexed": false,
          "internalType": "uint96",
          "name": "size",
          "type": "uint96"
        },
        {
          "indexed": false,
          "internalType": "uint24",
          "name": "price",
          "type": "uint24"
        },
        {
          "indexed": false,
          "internalType": "bool",
          "name": "isBuy",
          "type": "bool"
        }
      ],
      "name": "OrderCreated",
      "type": "event"
    },
    {
      "anonymous": false,
      "inputs": [
        {
          "indexed": false,
          "internalType": "uint40[]",
          "name": "orderId",
          "type": "uint40[]"
        },
        {
          "indexed": false,
          "internalType": "address",
          "name": "owner",
          "type": "address"
        }
      ],
      "name": "OrdersCanceled",
      "type": "event"
    },
    {
      "anonymous": false,
      "inputs": [
        {
          "indexed": true,
          "internalType": "address",
          "name": "pendingOwner",
          "type": "address"
        }
      ],
      "name": "OwnershipHandoverCanceled",
      "type": "event"
    },
    {
      "anonymous": false,
      "inputs": [
        {
          "indexed": true,
          "internalType": "address",
          "name": "pendingOwner",
          "type": "address"
        }
      ],
      "name": "OwnershipHandoverRequested",
      "type": "event"
    },
    {
      "anonymous": false,
      "inputs": [
        {
          "indexed": true,
          "internalType": "address",
          "name": "oldOwner",
          "type": "address"
        },
        {
          "indexed": true,
          "internalType": "address",
          "name": "newOwner",
          "type": "address"
        }
      ],
      "name": "OwnershipTransferred",
      "type": "event"
    },
    {
      "anonymous": false,
      "inputs": [
        {
          "indexed": false,
          "internalType": "uint40",
          "name": "orderId",
          "type": "uint40"
        },
        {
          "indexed": false,
          "internalType": "address",
          "name": "makerAddress",
          "type": "address"
        },
        {
          "indexed": false,
          "internalType": "bool",
          "name": "isBuy",
          "type": "bool"
        },
        {
          "indexed": false,
          "internalType": "uint256",
          "name": "price",
          "type": "uint256"
        },
        {
          "indexed": false,
          "internalType": "uint96",
          "name": "updatedSize",
          "type": "uint96"
        },
        {
          "indexed": false,
          "internalType": "address",
          "name": "takerAddress",
          "type": "address"
        },
        {
          "indexed": false,
          "internalType": "uint96",
          "name": "filledSize",
          "type": "uint96"
        }
      ],
      "name": "Trade",
      "type": "event"
    },
    {
      "anonymous": false,
      "inputs": [
        {
          "indexed": true,
          "internalType": "address",
          "name": "implementation",
          "type": "address"
        }
      ],
      "name": "Upgraded",
      "type": "event"
    },
    {
      "inputs": [
        {
          "internalType": "uint24",
          "name": "_price",
          "type": "uint24"
        },
        {
          "internalType": "uint96",
          "name": "size",
          "type": "uint96"
        },
        {
          "internalType": "bool",
          "name": "_postOnly",
          "type": "bool"
        }
      ],
      "name": "addBuyOrder",
      "outputs": [],
      "stateMutability": "nonpayable",
      "type": "function"
    },
    {
      "inputs": [
        {
          "internalType": "uint24",
          "name": "_price",
          "type": "uint24"
        },
        {
          "internalType": "uint96",
          "name": "size",
          "type": "uint96"
        },
        {
          "internalType": "bool",
          "name": "_postOnly",
          "type": "bool"
        }
      ],
      "name": "addSellOrder",
      "outputs": [],
      "stateMutability": "nonpayable",
      "type": "function"
    },
    {
      "inputs": [
        {
          "internalType": "uint40[]",
          "name": "_orderIds",
          "type": "uint40[]"
        }
      ],
      "name": "batchCancelOrders",
      "outputs": [],
      "stateMutability": "nonpayable",
      "type": "function"
    },
    {
      "inputs": [
        {
          "internalType": "uint24[]",
          "name": "buyPrices",
          "type": "uint24[]"
        },
        {
          "internalType": "uint96[]",
          "name": "buySizes",
          "type": "uint96[]"
        },
        {
          "internalType": "uint24[]",
          "name": "sellPrices",
          "type": "uint24[]"
        },
        {
          "internalType": "uint96[]",
          "name": "sellSizes",
          "type": "uint96[]"
        },
        {
          "internalType": "uint40[]",
          "name": "orderIdsToCancel",
          "type": "uint40[]"
        },
        {
          "internalType": "bool",
          "name": "postOnly",
          "type": "bool"
        }
      ],
      "name": "batchUpdate",
      "outputs": [],
      "stateMutability": "nonpayable",
      "type": "function"
    },
    {
      "inputs": [],
      "name": "bestBidAsk",
      "outputs": [
        {
          "internalType": "uint24",
          "name": "",
          "type": "uint24"
        },
        {
          "internalType": "uint24",
          "name": "",
          "type": "uint24"
        }
      ],
      "stateMutability": "view",
      "type": "function"
    },
    {
      "inputs": [],
      "name": "cancelOwnershipHandover",
      "outputs": [],
      "stateMutability": "payable",
      "type": "function"
    },
    {
      "inputs": [],
      "name": "collectFees",
      "outputs": [],
      "stateMutability": "nonpayable",
      "type": "function"
    },
    {
      "inputs": [
        {
          "internalType": "address",
          "name": "pendingOwner",
          "type": "address"
        }
      ],
      "name": "completeOwnershipHandover",
      "outputs": [],
      "stateMutability": "payable",
      "type": "function"
    },
    {
      "inputs": [],
      "name": "getL2Book",
      "outputs": [
        {
          "internalType": "bytes",
          "name": "",
          "type": "bytes"
        }
      ],
      "stateMutability": "view",
      "type": "function"
    },
    {
      "inputs": [],
      "name": "getMarketParams",
      "outputs": [
        {
          "internalType": "uint24",
          "name": "",
          "type": "uint24"
        },
        {
          "internalType": "uint96",
          "name": "",
          "type": "uint96"
        },
        {
          "internalType": "address",
          "name": "",
          "type": "address"
        },
        {
          "internalType": "uint256",
          "name": "",
          "type": "uint256"
        },
        {
          "internalType": "address",
          "name": "",
          "type": "address"
        },
        {
          "internalType": "uint256",
          "name": "",
          "type": "uint256"
        },
        {
          "internalType": "uint24",
          "name": "",
          "type": "uint24"
        },
        {
          "internalType": "uint96",
          "name": "",
          "type": "uint96"
        },
        {
          "internalType": "uint96",
          "name": "",
          "type": "uint96"
        },
        {
          "internalType": "uint256",
          "name": "",
          "type": "uint256"
        },
        {
          "internalType": "uint256",
          "name": "",
          "type": "uint256"
        }
      ],
      "stateMutability": "view",
      "type": "function"
    },
    {
      "inputs": [],
      "name": "getVaultParams",
      "outputs": [
        {
          "internalType": "address",
          "name": "",
          "type": "address"
        },
        {
          "internalType": "uint256",
          "name": "",
          "type": "uint256"
        },
        {
          "internalType": "uint96",
          "name": "",
          "type": "uint96"
        },
        {
          "internalType": "uint256",
          "name": "",
          "type": "uint256"
        },
        {
          "internalType": "uint96",
          "name": "",
          "type": "uint96"
        },
        {
          "internalType": "uint96",
          "name": "",
          "type": "uint96"
        },
        {
          "internalType": "uint96",
          "name": "",
          "type": "uint96"
        }
      ],
      "stateMutability": "view",
      "type": "function"
    },
    {
      "inputs": [
        {
          "internalType": "address",
          "name": "_owner",
          "type": "address"
        },
        {
          "internalType": "enum IOrderBook.OrderBookType",
          "name": "_type",
          "type": "uint8"
        },
        {
          "internalType": "address",
          "name": "_baseAssetAddress",
          "type": "address"
        },
        {
          "internalType": "uint256",
          "name": "_baseAssetDecimals",
          "type": "uint256"
        },
        {
          "internalType": "address",
          "name": "_quoteAssetAddress",
          "type": "address"
        },
        {
          "internalType": "uint256",
          "name": "_quoteAssetDecimals",
          "type": "uint256"
        },
        {
          "internalType": "address",
          "name": "_marginAccountAddress",
          "type": "address"
        },
        {
          "internalType": "uint96",
          "name": "_sizePrecision",
          "type": "uint96"
        },
        {
          "internalType": "uint24",
          "name": "_pricePrecision",
          "type": "uint24"
        },
        {
          "internalType": "uint24",
          "name": "_tickSize",
          "type": "uint24"
        },
        {
          "internalType": "uint96",
          "name": "_minSize",
          "type": "uint96"
        },
        {
          "internalType": "uint96",
          "name": "_maxSize",
          "type": "uint96"
        },
        {
          "internalType": "uint256",
          "name": "_takerFeeBps",
          "type": "uint256"
        },
        {
          "internalType": "uint256",
          "name": "_makerFeeBps",
          "type": "uint256"
        },
        {
          "internalType": "address",
          "name": "_kuruAmmVault",
          "type": "address"
        }
      ],
      "name": "initialize",
      "outputs": [],
      "stateMutability": "nonpayable",
      "type": "function"
    },
    {
      "inputs": [],
      "name": "owner",
      "outputs": [
        {
          "internalType": "address",
          "name": "result",
          "type": "address"
        }
      ],
      "stateMutability": "view",
      "type": "function"
    },
    {
      "inputs": [
        {
          "internalType": "address",
          "name": "pendingOwner",
          "type": "address"
        }
      ],
      "name": "ownershipHandoverExpiresAt",
      "outputs": [
        {
          "internalType": "uint256",
          "name": "result",
          "type": "uint256"
        }
      ],
      "stateMutability": "view",
      "type": "function"
    },
    {
      "inputs": [
        {
          "internalType": "uint24",
          "name": "_quoteSize",
          "type": "uint24"
        },
        {
          "internalType": "bool",
          "name": "_isFillOrKill",
          "type": "bool"
        }
      ],
      "name": "placeAndExecuteMarketBuy",
      "outputs": [
        {
          "internalType": "uint256",
          "name": "",
          "type": "uint256"
        }
      ],
      "stateMutability": "payable",
      "type": "function"
    },
    {
      "inputs": [
        {
          "internalType": "uint96",
          "name": "_size",
          "type": "uint96"
        },
        {
          "internalType": "bool",
          "name": "_isFillOrKill",
          "type": "bool"
        }
      ],
      "name": "placeAndExecuteMarketSell",
      "outputs": [
        {
          "internalType": "uint256",
          "name": "",
          "type": "uint256"
        }
      ],
      "stateMutability": "payable",
      "type": "function"
    },
    {
      "inputs": [
        {
          "internalType": "uint24[]",
          "name": "_prices",
          "type": "uint24[]"
        },
        {
          "internalType": "uint96[]",
          "name": "_sizes",
          "type": "uint96[]"
        },
        {
          "internalType": "bool",
          "name": "_postOnly",
          "type": "bool"
        }
      ],
      "name": "placeMultipleBuyOrders",
      "outputs": [],
      "stateMutability": "nonpayable",
      "type": "function"
    },
    {
      "inputs": [
        {
          "internalType": "uint24[]",
          "name": "_prices",
          "type": "uint24[]"
        },
        {
          "internalType": "uint96[]",
          "name": "_sizes",
          "type": "uint96[]"
        },
        {
          "internalType": "bool",
          "name": "_postOnly",
          "type": "bool"
        }
      ],
      "name": "placeMultipleSellOrders",
      "outputs": [],
      "stateMutability": "nonpayable",
      "type": "function"
    },
    {
      "inputs": [],
      "name": "proxiableUUID",
      "outputs": [
        {
          "internalType": "bytes32",
          "name": "",
          "type": "bytes32"
        }
      ],
      "stateMutability": "view",
      "type": "function"
    },
    {
      "inputs": [],
      "name": "renounceOwnership",
      "outputs": [],
      "stateMutability": "payable",
      "type": "function"
    },
    {
      "inputs": [],
      "name": "requestOwnershipHandover",
      "outputs": [],
      "stateMutability": "payable",
      "type": "function"
    },
    {
      "inputs": [
        {
          "internalType": "uint256",
          "name": "",
          "type": "uint256"
        }
      ],
      "name": "s_buyPricePoints",
      "outputs": [
        {
          "internalType": "uint40",
          "name": "head",
          "type": "uint40"
        },
        {
          "internalType": "uint40",
          "name": "tail",
          "type": "uint40"
        }
      ],
      "stateMutability": "view",
      "type": "function"
    },
    {
      "inputs": [],
      "name": "s_buyTree",
      "outputs": [
        {
          "internalType": "bytes32",
          "name": "level0",
          "type": "bytes32"
        }
      ],
      "stateMutability": "view",
      "type": "function"
    },
    {
      "inputs": [],
      "name": "s_orderIdCounter",
      "outputs": [
        {
          "internalType": "uint40",
          "name": "",
          "type": "uint40"
        }
      ],
      "stateMutability": "view",
      "type": "function"
    },
    {
      "inputs": [
        {
          "internalType": "uint40",
          "name": "",
          "type": "uint40"
        }
      ],
      "name": "s_orders",
      "outputs": [
        {
          "internalType": "address",
          "name": "ownerAddress",
          "type": "address"
        },
        {
          "internalType": "uint96",
          "name": "size",
          "type": "uint96"
        },
        {
          "internalType": "uint40",
          "name": "prev",
          "type": "uint40"
        },
        {
          "internalType": "uint40",
          "name": "next",
          "type": "uint40"
        },
        {
          "internalType": "uint24",
          "name": "price",
          "type": "uint24"
        },
        {
          "internalType": "bool",
          "name": "isBuy",
          "type": "bool"
        }
      ],
      "stateMutability": "view",
      "type": "function"
    },
    {
      "inputs": [
        {
          "internalType": "uint256",
          "name": "",
          "type": "uint256"
        }
      ],
      "name": "s_sellPricePoints",
      "outputs": [
        {
          "internalType": "uint40",
          "name": "head",
          "type": "uint40"
        },
        {
          "internalType": "uint40",
          "name": "tail",
          "type": "uint40"
        }
      ],
      "stateMutability": "view",
      "type": "function"
    },
    {
      "inputs": [],
      "name": "s_sellTree",
      "outputs": [
        {
          "internalType": "bytes32",
          "name": "level0",
          "type": "bytes32"
        }
      ],
      "stateMutability": "view",
      "type": "function"
    },
    {
      "inputs": [
        {
          "internalType": "bool",
          "name": "_state",
          "type": "bool"
        }
      ],
      "name": "toggleMarkets",
      "outputs": [],
      "stateMutability": "nonpayable",
      "type": "function"
    },
    {
      "inputs": [
        {
          "internalType": "address",
          "name": "newOwner",
          "type": "address"
        }
      ],
      "name": "transferOwnership",
      "outputs": [],
      "stateMutability": "payable",
      "type": "function"
    },
    {
      "inputs": [
        {
          "internalType": "uint96",
          "name": "_vaultAskOrderSize",
          "type": "uint96"
        },
        {
          "internalType": "uint96",
          "name": "_vaultBidOrderSize",
          "type": "uint96"
        },
        {
          "internalType": "uint256",
          "name": "_askPrice",
          "type": "uint256"
        },
        {
          "internalType": "uint256",
          "name": "_bidPrice",
          "type": "uint256"
        }
      ],
      "name": "updateVaultOrdSz",
      "outputs": [],
      "stateMutability": "nonpayable",
      "type": "function"
    },
    {
      "inputs": [
        {
          "internalType": "address",
          "name": "newImplementation",
          "type": "address"
        },
        {
          "internalType": "bytes",
          "name": "data",
          "type": "bytes"
        }
      ],
      "name": "upgradeToAndCall",
      "outputs": [],
      "stateMutability": "payable",
      "type": "function"
    },
    {
      "inputs": [],
      "name": "vaultAskOrderSize",
      "outputs": [
        {
          "internalType": "uint96",
          "name": "",
          "type": "uint96"
        }
      ],
      "stateMutability": "view",
      "type": "function"
    },
    {
      "inputs": [],
      "name": "vaultBestAsk",
      "outputs": [
        {
          "internalType": "uint256",
          "name": "",
          "type": "uint256"
        }
      ],
      "stateMutability": "view",
      "type": "function"
    }
  ],
  "bytecode": "0x60a08060405234609a573060805263409feecd195460018116608c5760011c6002600160401b0319016048575b6150cf90816100a082396080518181816114ec01526115b10152f35b6002600160411b0363409feecd19556001600160401b0360209081527fc7f505b2f371ae2175ee4913f4499e1f2633a7b5936321eed1cdaeb6115181d29080a1602c565b63f92ee8a96000526004601cfd5b600080fdfe61018080604052600436101561001457600080fd5b60003560e01c90816302b90c65146124dc575080630e2e2ffe146124875780631c0d9c22146123fd57806320b3fa5c14611dbf57806323afbff314611d2b5780632569296214611cdf5780632aa9fbdc146119095780632bf1360e146118e457806346fdfbb1146116ed578063474b848c146116cf5780634d7811031461167b5780634f1ef2861461155d57806351130ac61461153657806352d1902d146114d857806354d1f13d146114905780635b16c9b614611450578063715018a61461141357806388bb4f60146113ab5780638da5cb5b1461137e57806390c9427c146112de578063b4de8b70146112a4578063badc92d114611286578063bb62b3c514610e79578063c384871714610ba1578063c879657214610b0a578063cae22ee6146108de578063cc57aec614610410578063d2cd7d7f14610379578063e55bb4e3146102aa578063e6d29b5114610251578063f04e283e14610201578063f2fde38b146101c35763fee81cf41461018b57600080fd5b346101be5760203660031901126101be576101a46125a6565b63389a75e1600c52600052602080600c2054604051908152f35b600080fd5b60203660031901126101be576101d76125a6565b6101df6134f4565b8060601b156101f3576101f190613f92565b005b637448fbae6000526004601cfd5b60203660031901126101be576102156125a6565b61021d6134f4565b63389a75e1600c52806000526020600c2090815442116102435760006101f19255613f92565b636f5e88186000526004601cfd5b346101be5760203660031901126101be5760043560005260076020526102a6604060002054604051918164ffffffffff80859460281c1691168390929164ffffffffff60209181604085019616845216910152565b0390f35b346101be5760803660031901126101be576102c36125d2565b6102cb6125bc565b6000549091906001600160a01b0316330361033c576001600160601b0391600454908360601b9060601b16908360601b191617600455166001600160601b0319600554161760055560001960035414610331575b6001541561032957005b606435600155005b60443560035561031f565b60405162461bcd60e51b815260206004820152601560248201527413dc99195c909bdbdace8813db9b1e4815985d5b1d605a1b6044820152606490fd5b346101be57610387366125e8565b9360ff600f5460281c166103ef578184036103ff5760005b8481106103a857005b6103bb6103b6828785612645565b61266b565b906103cf6103ca828688612645565b61267b565b60ff600f5460281c166103ef57876103e991600194612955565b0161039f565b6225b2dd60e11b60005260046000fd5b631fec674760e31b60005260046000fd5b346101be5760603660031901126101be57610429612545565b6104316125bc565b9061043a612536565b60ff600f5460281c166103ef5762ffffff82169182156108cd57601654936001600160601b038116946001600160601b0381168611156108bc5760601c6001600160601b03168510156108bc5762ffffff61049c8160155460a01c16846128e0565b166108ab5760009490939285906104b161406e565b949094926000976060995b6001600160601b03821615158061089c575b8061088e575b1561058657816000891561055957506104ec906149ad565b9a909a925b8b6104fb916130e9565b938461050691612879565b98600090600014946105296105359461052f9361053b9861055357508290612879565b98614113565b90612b6d565b99612899565b9561054461406e565b959096919799989095946104bc565b90612879565b6001600160601b039b91604061057d9262ffffff8b168152600860205220896143ba565b9b169a926104f1565b848b8b89936001600160601b038d969716806106a9575b50506105f291506105b29061052f8789614113565b6105eb6105da60018060a01b03601554169262ffffff6105d36013546126fb565b9116612721565b62ffffff600f5460901c1690612734565b3391613511565b610683575b506001600160601b03821661060857005b61067e60008051602061507a83398151915293600f549261062f64ffffffffff85166128f6565b64ffffffffff1990941664ffffffffff851617600f5561064e82613d6c565b506000526007602052610670610668846040600020613e98565b848684613ef7565b604051938493339085612910565b0390a1005b6001600160601b0383160361069857836105f7565b6306e6da4d60e01b60005260046000fd5b6106bf601254916106b9836126fb565b90612721565b6001600160601b036106d981600f5460301c168093612734565b931691826107f2575b50505061075660009361073a602093601054806107b1575b5060018060a01b03601954169261073560018060a01b0360145416610727604051948592338b85016127fd565b03601f198101845283612785565b612899565b6040519586809481936337adb00f60e11b83526004830161257a565b03925af19081156107a5576105f2926105b292610776575b81925061059d565b6107979060203d60201161079e575b61078f8183612785565b8101906127e5565b508861076e565b503d610785565b6040513d6000823e3d90fd5b6107e1816107dc6107cf6107c86107e99587614c5d565b809661312b565b946106b96011548461312b565b612734565b601854613147565b6018558c6106fa565b60195460008054601454610849966020966001600160a01b03938416969584169593909216939261082b92916107dc916106b9906126fb565b604051633609c92960e11b8152968795869485939160048501613109565b03925af19384156107a55761073a60209361075693600097610871575b5093508195506106e2565b61088790863d881161079e5761078f8183612785565b508c610866565b5062ffffff861615156104d4565b508862ffffff871611156104ce565b63272d3bf760e01b60005260046000fd5b630a5c4f1f60e01b60005260046000fd5b6348fa9b2b60e11b60005260046000fd5b60403660031901126101be576108f26125d2565b6108fa612527565b90600f5460ff8160281c166103ef5760ff60055460601c1660038110159081610a3357600114918215610ab0575061095d6109486109396012546126fb565b6001600160601b038616612721565b6001600160601b03600f5460301c1690612734565b3410610a9f576109746001600160601b0393613573565b9316938415610a5a57610a4957610a3357156109ae576109a66109a16109486020946106b96012546126fb565b613154565b604051908152f35b6019546014546012546109fd946020936001600160a01b039384169316916109dd91610948916106b9906126fb565b916000604051809781958294633af55cc760e11b84523360048501612826565b03925af19182156107a557602092610a16575b506109a6565b610a2c90833d851161079e5761078f8183612785565b5082610a10565b634e487b7160e01b600052602160045260246000fd5b63bb55fd2760e01b60005260046000fd5b5050909150600090610a70575b506020906109a6565b8080808060018060a01b036019541634905af1610a8b6127a6565b50610a675763386bf62b60e11b8152600490fd5b63fd99316160e01b60005260046000fd5b6001600160601b0393610b056109749260018060a01b036014541690610afd60018060a01b03601954169189610af2610aea6012546126fb565b828916612721565b9160301c1690612734565b913390613099565b613573565b346101be5760003660031901126101be576019546014546018546015546017546040516324facdb160e11b81526001600160a01b0394851660048201526024810193909352908316604483015260648201529160209183916084918391600091165af180156107a557610b84575b60006018819055601755005b610b9c9060203d60201161079e5761078f8183612785565b610b78565b346101be576101e03660031901126101be57610bbb6125a6565b6024359060038210156101be576044356001600160a01b038116908190036101be576084356001600160a01b038116908190036101be5760c4356001600160a01b038116908190036101be5760e435906001600160601b03821682036101be57610104359262ffffff841684036101be57610124359162ffffff831683036101be5761014435916001600160601b0383168093036101be5761016435936001600160601b03851685036101be5761018435956101a435976101c4359960018060a01b038b16809b036101be5763409feecd19805460038255909c9080610e4f575b50638b78c6d81954610e41576001600160a01b0316801560ff1b8117638b78c6d81955600060008051602061503a8339815191528180a388611f4002611f4081048a03610e2b5761271090048a11610e1a576005805460ff60601b191660609e8f1b60ff60601b16179055601480546001600160a01b03199081169290921790556015805460643560125560a435601355601980548416909817909755600f80546601000000000000600160a81b03191660309590951b71ffffffffffffffffffffffff000000000000169490941760909390931b62ffffff60901b16929092179092556001600160b81b03199094169290921760a09190911b62ffffff60a01b1617909155601680546001600160c01b031916929092179290971b600160601b600160c01b03169190911790556010556011556000805490931617825560001960035580610de9575080f35b6002905560016020527fc7f505b2f371ae2175ee4913f4499e1f2633a7b5936321eed1cdaeb6115181d2602080a180f35b63a926954560e01b60005260046000fd5b634e487b7160e01b600052601160045260246000fd5b630dc149f06000526004601cfd5b600181929e92811c14303b1015610e6b5760ff1b1b9b8e610c9c565b63f92ee8a96000526004601cfd5b346101be57610e87366125e8565b919360ff600f5460281c166103ef578184036103ff579092936000945b808610610ead57005b610ebb6103b6878386612645565b93610eca6103ca888886612645565b9660ff600f5460281c166103ef5762ffffff86169081156108cd57601654986001600160601b038116996001600160601b0381168b11156108bc5760601c6001600160601b03168a10156108bc5762ffffff610f2d8160155460a01c168a6128e0565b166108ab576000989496959089610f4261406e565b9390939160009060609d5b6001600160601b038616151580611277575b80611269575b1561101857610fc5929190868660008a15610fdb575050610fbf92610fb9610fa19593610fa8610f9761052f956149ad565b98905b809d6130e9565b8094612879565b9b6000901561055357508290612879565b97614113565b9d612899565b99610fce61406e565b9b9d919b90959093610f4d565b6001600160601b039593610fa8610fa161101161052f96866040610fb99762ffffff610fbf9d9a168152600860205220906143ba565b9916610f9a565b919350889c97999b9d929e95506001600160601b03909894969816806110f4575b50505061104d6110889161052f8688614113565b61106b60018060a01b03601554169162ffffff6105d36013546126fb565b90611082339262ffffff600f5460901c1690612734565b90613511565b6110df575b506001936001600160601b0382166110ad575b5050500194909193610ea4565b6110d460008051602061507a83398151915293600f549261062f64ffffffffff85166128f6565b0390a18780806110a0565b6001600160601b03821603610698578961108d565b9091929350611109601254916106b9836126fb565b6001600160601b0361112381600f5460301c168093612734565b931691826111eb575b50505061118c600092611170602093601054806111cb575060018060a01b03601954169261073560018060a01b0360145416610727604051948592338b85016127fd565b6040519485809481936337adb00f60e11b83526004830161257a565b03925af180156107a5578a926110889261104d926111ad575b819350611039565b6111c49060203d811161079e5761078f8183612785565b508e6111a5565b6107e1816107dc6107cf6107c86111e29587614c5d565b601855386106fa565b60195460008054601454611224966020966001600160a01b03938416969584169593909216939261082b92916107dc916106b9906126fb565b03925af19283156107a55761117060209361118c9360009661124c575b50935081945061112c565b61126290863d811161079e5761078f8183612785565b5038611241565b5062ffffff85161515610f65565b508862ffffff86161115610f5f565b346101be5760003660031901126101be576020600954604051908152f35b346101be5760003660031901126101be5760406112bf613fc4565b905062ffffff6112cd61406e565b905081845193168352166020820152f35b346101be5760003660031901126101be57610160600f5460018060a01b03601454166012546001600160601b0360155462ffffff60135491601654926010549560115497866040519a868160901c168c5260301c1660208b015260408a0152606089015260018060a01b038216608089015260a088015260a01c1660c086015281811660e086015260601c16610100840152610120830152610140820152f35b346101be5760003660031901126101be57638b78c6d819546040516001600160a01b039091168152602090f35b346101be5760003660031901126101be5760e060018060a01b03600054166001546001600160601b03806002541660035460045491836005541694604051968752602087015260408601526060850152818116608085015260601c1660a083015260c0820152f35b60003660031901126101be576114276134f4565b6000638b78c6d8195460008051602061503a8339815191528280a3600160ff1b638b78c6d81955005b346101be5760603660031901126101be57611469612545565b6114716125bc565b611479612536565b9060ff600f5460281c166103ef576101f192612955565b60003660031901126101be5763389a75e1600c523360005260006020600c2055337ffa7b8eab7da67f412cc9575ed43464468f9bfbae89d1675917346ca6d8fe3c92600080a2005b346101be5760003660031901126101be57307f00000000000000000000000000000000000000000000000000000000000000000361152857602060405160008051602061501a8339815191528152f35b639f03a0266000526004601cfd5b346101be5760003660031901126101be5760206001600160601b0360055416604051908152f35b60403660031901126101be576115716125a6565b602435906001600160401b0382116101be57366023830112156101be578160040135906001600160401b0382116101be5736602483850101116101be57307f000000000000000000000000000000000000000000000000000000000000000014611528576115dd6134f4565b60018060a01b03166352d1902d60015260008051602061501a833981519152602060016004601d855afa510361166d57807fbc7cd75a20ee27fd9adebab32041f755214dbc6bffa90cc0225b39da2e5c2d3b600080a2818160008051602061501a8339815191525561164b57005b816000926024604051950185378338925af41561166457005b3d6000823e3d90fd5b6355299b496001526004601dfd5b346101be5760203660031901126101be576004358015158091036101be576116a16134f4565b600f549060ff8260281c16151581146103ef5760ff60281b9060281b169060ff60281b191617600f55600080f35b346101be5760003660031901126101be576020600354604051908152f35b346101be5760003660031901126101be5760405143602082015260208152611716604082612785565b61171e6131a9565b62ffffff811662ffffff811415806118db575b156117de57600052600760205264ffffffffff604060002054169064ffffffffff6000925b1691821561179c5761177a9083600052600660205260406000205460a01c90612879565b91600052600660205264ffffffffff8060016040600020015460281c16611756565b6040805162ffffff841660208201526001600160601b039092169082015290926117d992506117d391906107358260608101610727565b91613271565b61171e565b6117fc83604051906000602083015260208252610735604083612785565b611804613358565b62ffffff811662ffffff811415806118d2575b156118c457600052600860205264ffffffffff604060002054169064ffffffffff6000925b16918215611882576118609083600052600660205260406000205460a01c90612879565b91600052600660205264ffffffffff8060016040600020015460281c1661183c565b6040805162ffffff841660208201526001600160601b039092169082015290926118bf92506118b991906107358260608101610727565b9161340e565b611804565b604051806102a6858261257a565b50801515611817565b50801515611731565b346101be5760003660031901126101be57602064ffffffffff600f5416604051908152f35b60403660031901126101be5761191d612545565b611925612527565b90600f5460ff8160281c166103ef5760ff60055460601c169160038310159283610a3357600214918215611c9b57506119706105da6119656013546126fb565b62ffffff8416612721565b3410610a9f579291925b9260009360009061198961406e565b959095926000976060935b62ffffff81169081151580611c8d575b80611c7f575b15611aa15750600f5460301c6001600160601b03166119c891612ba7565b9462ffffff811695866119da91612bca565b98899283886000928460001462ffffff98611a5398611a3e98611a3897611a329661055395611a7257505050611a12611a2c916149ad565b929098898094985b60009215611a6a5761055392506130e9565b9f6130e9565b97612899565b96612ba7565b6001600160601b03600f5460301c1690612bca565b1696611a5d61406e565b9198909791949390611994565b505090612879565b926001600160601b039492604083611a2c96611a959552600860205220906143ba565b93169889809498611a1a565b8791508a93866001600160601b038b95169182611b1b575b50505062ffffff16938415610a5a57610a4957610a335715611aec576109a66109a16105da6020946106b96013546126fb565b6019546015546013546109fd946020936001600160a01b039384169316916109dd916105da916106b9906126fb565b6001600160601b03929650611b36601254976106b9896126fb565b611b4884600f5460301c168092612734565b9760018060a01b03601454169485931680611c1a575b5050505060105480611bd6575b50611b9b6000939261073a8860209461073560018060a01b036019541694610727604051948592338b8501612826565b03925af19182156107a55762ffffff92611bb7575b8192611ab9565b611bcf9060203d60201161079e5761078f8183612785565b5086611bb0565b6000939261073a88602094611c0b6107e186611bfc6107c86107dc9f99611b9b9a614c5d565b9d8e956106b96011548461312b565b60185594505050929350611b6b565b611c4893600061082b6020956107dc60018060a01b0360195416956106b960018060a01b03865416986126fb565b03925af180156107a557611c60575b80808492611b5e565b611c789060203d60201161079e5761078f8183612785565b5087611c57565b5062ffffff871615156119aa565b5062ffffff808816106119a4565b611cd79060018060a01b036015541690610afd60018060a01b03601954169162ffffff611ccc610aea6013546126fb565b9160901c1690612734565b92919261197a565b60003660031901126101be5763389a75e1600c52336000526202a30042016020600c2055337fdbf36a107da19e49527a7176a1babf963b4b0ff8cde35ee35d6cd8f1f9ac7e1d600080a2005b346101be5760203660031901126101be576004356001600160401b0381116101be57611d5b9036906004016124f7565b9060005b828110611d9a57507f386974f41b61738b510019ccd5a3524a43eccf0d136929e09d524e87aeeca2c49161067e6040519283923391846126a1565b80611db8611db3611dae6001948787612645565b61268f565b612be8565b5001611d5f565b346101be5760c03660031901126101be576004356001600160401b0381116101be57611def9036906004016124f7565b60c0526024356001600160401b0381116101be57611e119036906004016124f7565b61010052906044356001600160401b0381116101be57611e359036906004016124f7565b906064356001600160401b0381116101be57611e559036906004016124f7565b90926084356001600160401b0381116101be57611e769036906004016124f7565b60a43560a0819052909791969080151590036101be5760ff600f5460281c166103ef576101005160c051036103ff578383036103ff579060006080525b60c05160805110611f87575b505060005b818110611f2a575b505050505060005b828110611f0f57507f386974f41b61738b510019ccd5a3524a43eccf0d136929e09d524e87aeeca2c49161067e6040519283923391846126a1565b80611f23611db3611dae6001948787612645565b5001611ed4565b62ffffff611f3c6103b6838588612645565b1615611f8257611f506103b6828487612645565b90611f5f6103ca828689612645565b60ff600f5460281c166103ef57600192611f7c9160a05191612955565b01611ec4565b611ecc565b939196909562ffffff611fa56103b660809896985160c0518b612645565b16156123ef57611fbd6103b660805160c0518a612645565b61016052611fd46103ca6080516101005188612645565b6101405260ff600f5460281c166103ef5762ffffff6101605116156108cd576016546001600160601b0381166001600160601b03610140511611156108bc576001600160601b039060601c166001600160601b03610140511610156108bc5762ffffff61204b8160155460a01c16610160516128e0565b166108ab576101405161012052939695946000949093859361206b61406e565b969096956000906060995b6001600160601b0361012051161515806123d8575b806123ca575b1561214c576101205160e0526120f392919060008a8c1561210b5750509161052f610535926120ed610fa1956120dc6120cc610120516149ad565b98905b806101205260e0516130e9565b9e6000901561055357508290612879565b9b614113565b996120fc61406e565b9c9098909c979b99919b612076565b926120ed6001600160601b0395936120dc610fa161214561052f968962ffffff6105359b16825260086020526040610120519220906143ba565b99166120cf565b9298506001600160601b03919399949a959b97509b959b1680612277575b5050612185915061104d9061052f6101205161016051614113565b60a051612246575b6001600160601b0361012051166121ae575b60016080510160805290611eb3565b60008051602061507a83398151915261223e600f546121d364ffffffffff82166128f6565b9064ffffffffff82169064ffffffffff191617600f556121f561016051613d6c565b5062ffffff61016051166000526007602052612226612218826040600020613e98565b826101205161016051613ef7565b60405191829161016051906101205190339085612910565b0390a161219f565b6001600160601b0361012051166001600160601b036101405116031561218d576306e6da4d60e01b60005260046000fd5b612287601254916106b9836126fb565b6001600160601b036122a181600f5460301c168093612734565b9316918261234c575b5050506122ee60009361073a6020936010548061232c575060018060a01b03601954169261073560018060a01b0360145416610727604051948592338b85016127fd565b03925af19081156107a5576121859261104d9261230e575b81925061216a565b6123259060203d811161079e5761078f8183612785565b508b612306565b6107e1816107dc6107cf6107c86123439587614c5d565b6018558f6106fa565b60195460008054601454612385966020966001600160a01b03938416969584169593909216939261082b92916107dc916106b9906126fb565b03925af19384156107a55761073a6020936122ee936000976123ad575b5093508195506122aa565b6123c390863d811161079e5761078f8183612785565b508f6123a2565b5062ffffff89161515612091565b5062ffffff610160511662ffffff8a16111561208b565b958197929450949294611ebf565b346101be5760203660031901126101be5760043564ffffffffff81168091036101be57600052600660205260c0604060002060ff600182549201546040519260018060a01b038116845260a01c602084015264ffffffffff8116604084015264ffffffffff8160281c16606084015262ffffff8160501c16608084015260681c16151560a0820152f35b346101be5760203660031901126101be5760043560005260086020526102a6604060002054604051918164ffffffffff80859460281c1691168390929164ffffffffff60209181604085019616845216910152565b346101be5760003660031901126101be57602090600c548152f35b9181601f840112156101be578235916001600160401b0383116101be576020808501948460051b0101116101be57565b6024359081151582036101be57565b6044359081151582036101be57565b6004359062ffffff821682036101be57565b60005b83811061256a5750506000910152565b818101518382015260200161255a565b6040916020825261259a8151809281602086015260208686019101612557565b601f01601f1916010190565b600435906001600160a01b03821682036101be57565b602435906001600160601b03821682036101be57565b600435906001600160601b03821682036101be57565b60606003198201126101be576004356001600160401b0381116101be5781612612916004016124f7565b92909291602435906001600160401b0382116101be57612634916004016124f7565b909160443580151581036101be5790565b91908110156126555760051b0190565b634e487b7160e01b600052603260045260246000fd5b3562ffffff811681036101be5790565b356001600160601b03811681036101be5790565b3564ffffffffff811681036101be5790565b604080825281018390529293929160608301906000905b8082106126d3575050602091509360018060a01b0316910152565b909183359064ffffffffff82168092036101be579081526020938401930191600101906126b8565b604d8111610e2b57600a0a90565b906103e88202918083046103e81490151715610e2b57565b81810292918115918404141715610e2b57565b811561273e570490565b634e487b7160e01b600052601260045260246000fd5b60c081019081106001600160401b0382111761276f57604052565b634e487b7160e01b600052604160045260246000fd5b90601f801991011681019081106001600160401b0382111761276f57604052565b3d156127e0573d906001600160401b03821161276f57604051916127d4601f8201601f191660200184612785565b82523d6000602084013e565b606090565b908160209103126101be575180151581036101be5790565b6001600160a01b0391821681529116602082015260408101919091526001606082015260800190565b6001600160a01b0391821681529116602082015260408101919091526000606082015260800190565b6001600160a01b039182168152911660208201526040810191909152901515606082015260800190565b906001600160601b03809116911601906001600160601b038211610e2b57565b6128de90929192602060405194826128ba8794518092858088019101612557565b83016128ce82518093858085019101612557565b010103601f198101845283612785565b565b9062ffffff1690811561273e5762ffffff160690565b64ffffffffff60019116019064ffffffffff8211610e2b57565b64ffffffffff90911681526001600160a01b0390911660208201526001600160601b0391909116604082015262ffffff90911660608201526001608082015260a00190565b90916016546001600160601b038416906001600160601b0381168211156108bc5760601c6001600160601b03168110156108bc5762ffffff61299e8160155460a01c16856128e0565b166108ab5762ffffff83169384156108cd576129d46129da926105eb61094860018060a01b0360145416926106b96012546126fb565b83613a1e565b9091612b63575b506001600160601b0316908115612b5e5760008051602061507a8339815191529260a092612b3e600f5493612a3b612a1f64ffffffffff87166128f6565b9164ffffffffff8316809764ffffffffff191617600f55613e03565b50836000526008602052612a53816040600020613e98565b60405190612a6082612754565b338252602080830186815264ffffffffff9283166040808601828152600060608801818152608089018d815260a08a018381528f8452600690985293909120975188546001600160a01b0319166001600160a01b03919091161788559351929690959193612af993909183918291600191612ae4906001600160601b031682613ed4565b01975116168219875416178655511684612b85565b518254915163ffffffff60501b1990921660509190911b62ffffff60501b161790151560681b60ff60681b161790556000908152600660205260409020600101612b85565b6040519283523360208401526040830152606082015260006080820152a1565b505050565b61069857386129e1565b9062ffffff8091169116019062ffffff8211610e2b57565b9064ffffffffff60281b82549160281b169064ffffffffff60281b1916179055565b906001600160601b03809116911602906001600160601b038216918203610e2b57565b906001600160601b031690811561273e576001600160601b03160490565b64ffffffffff16806000526006602052604060002090604051612c0a81612754565b6001835493818060a01b0385168352602083019460a01c855201549264ffffffffff8416926040830190848252606084019064ffffffffff8760281c16825262ffffff8760501c16608086019681885260ff60a088019960681c16151590818a52151560001461303257505064ffffffffff83511660005260066020528064ffffffffff60016040600020015460281c1603612fd057865115612feb5762ffffff865116600052600760205264ffffffffff60406000205416818111159081612fe1575b5015612fd0575b84516001600160a01b03163303612fbf5764ffffffffff83511680612f96575b5064ffffffffff82511680612f61575b50865115612e645760209492869492612d629262ffffff612dee9951166000526007885264ffffffffff6040600020541614612e24575b62ffffff8651166000526007875264ffffffffff80604060002093511691511691614386565b6019549151601554915193516001600160a01b0391821694938216939290911691600091612dd091612da29162ffffff16906001600160601b0316612ba7565b62ffffff611ccc81612dc4600f54946001600160601b038660301c1690612bca565b166106b96013546126fb565b604051633af55cc760e11b81529687958694859391600485016127fd565b03925af180156107a557612e05575b505b51151590565b612e1d9060203d60201161079e5761078f8183612785565b5038612dfd565b62ffffff865116600052600787526040600020612e4a64ffffffffff835116809261416c565b50612d3c57612e5e62ffffff875116614249565b50612d3c565b91612eb49162ffffff876020979582612ef39a51166000526008895264ffffffffff6040600020541614612f27575b51166000526008865264ffffffffff80604060002093511691511691614386565b601954905160145492516012546001600160a01b03928316949383169390921691600091612dd091610948916001600160601b0316906106b9906126fb565b03925af180156107a557612f08575b50612dff565b612f209060203d60201161079e5761078f8183612785565b5038612f02565b81815116600052600888526040600020612f4a64ffffffffff855116809261416c565b50612e9357612f5b828251166141aa565b50612e93565b64ffffffffff84511690600052600660205264ffffffffff6001604060002001911664ffffffffff1982541617905538612d05565b612fb99064ffffffffff8451169060005260066020526001604060002001612b85565b38612cf5565b63a0cdd78160e01b60005260046000fd5b63020a7dc960e61b60005260046000fd5b9050151538612cce565b62ffffff865116600052600860205264ffffffffff60406000205416818111159081613028575b50612cd55763020a7dc960e61b60005260046000fd5b9050151538613012565b1561306c575062ffffff86511660005260076020528064ffffffffff604060002054160315612cd55763020a7dc960e61b60005260046000fd5b60005260086020528064ffffffffff604060002054160315612cd55763020a7dc960e61b60005260046000fd5b601c600060649281946020966040519860605260405260601b602c526323b872dd60601b600c525af13d156001600051141716156130db576000606052604052565b637939f4246000526004601cfd5b906001600160601b03809116911603906001600160601b038211610e2b57565b6001600160a01b03918216815291166020820152604081019190915260600190565b91908203918211610e2b57565b906101f58201809211610e2b57565b91908201809211610e2b57565b600080808060018060a01b036019541661316e863461312b565b905af16131796127a6565b501561319857600080808093335af16131906127a6565b501561319857565b63386bf62b60e11b60005260046000fd5b60008052600b6020526131c160006040812054614c7f565b60018101613269575060008052600a6020526131e260006040812054614c7f565b6001810161324c57506131f86000600954614c7f565b600181016132065750600090565b80600052600a60205260ff61321f604060002054614ca8565b169060081b1780600052600b60205262ffffff60ff613242604060002054614ca8565b169160081b161790565b80600052600b60205262ffffff60ff613242604060002054614ca8565b62ffffff1690565b8060081c9060ff811660ff8103613321575b5060ff9060101c1660ff821660ff81036132db575b5060ff91501660ff81036132ad575b50600090565b6132b990600954614c7f565b60018101156132a75780600052600a60205260ff61321f604060002054614ca8565b6132f39082600052600a602052604060002054614c7f565b9160018301156132985761ff009150161780600052600b60205262ffffff60ff613242604060002054614ca8565b61333d9061ffff8416600052600b602052604060002054614c7f565b60018101156132835762ffffff1662ffff0090911617919050565b60008052600e60205261337060006040812054614c7f565b60018101613269575060008052600d60205261339160006040812054614c7f565b600181016133f157506133a76000600c54614c7f565b600181016133b55750600090565b80600052600d60205260ff6133ce604060002054614ca8565b169060081b1780600052600e60205262ffffff60ff613242604060002054614ca8565b80600052600e60205262ffffff60ff613242604060002054614ca8565b8060081c9060ff811660ff81036134bd575b5060ff9060101c1660ff821660ff8103613477575b5060ff91501660ff81036134495750600090565b61345590600c54614c7f565b60018101156132a75780600052600d60205260ff6133ce604060002054614ca8565b61348f9082600052600d602052604060002054614c7f565b9160018301156134355761ff009150161780600052600e60205262ffffff60ff613242604060002054614ca8565b6134d99061ffff8416600052600e602052604060002054614c7f565b60018101156134205762ffffff1662ffff0090911617919050565b638b78c6d81954330361350357565b6382b429006000526004601cfd5b601954604051633609c92960e11b81529360209385936001600160a01b0390931692849260009284926135479260048501613109565b03925af180156107a5576135585750565b6135709060203d60201161079e5761078f8183612785565b50565b6000908161357f613fc4565b919091906060935b6001600160601b0381169081151580613a16575b80613a07575b1561384e57808580613837575b60009015613809575060015490600454936001600160601b038560601c16600254956135e36001600160601b038816836130e9565b926001600160601b0384161191821561380057849788935b15613757575050506136439060008051602061505a833981519152936002546001600160601b0361362e83828416612879565b16906001600160601b031916176002556130e9565b926136b66136518288614e4c565b966136678160018060a01b0360005416956130e9565b6040805160008082526001600160a01b0390971660208201529081019590955260608501939093526001600160601b0392831660808501523360a085015290911660c0830152819060e0820190565b0390a191935b82956000146137145750916136f56136db6136fb9361370196956130e9565b6001546001600160601b0380600f5460301c169216614d68565b90613147565b93612899565b9161370a613fc4565b9092919091613587565b61374a62ffffff916137306137519561370198979a9b956130e9565b6001600160601b038481600f5460301c1693169116614d68565b1690612b6d565b94612899565b909192506001600160601b031916600255806001600160601b031960055416176005556107d06107d38202916107d38184041490151702156137f257600160601b600160c01b03199091166107d090910460601b600160601b600160c01b03161760045560008051602061505a833981519152916136439086906103eb6137e56137e088612709565b613138565b04600155856003556130e9565b63ad251c276000526004601cfd5b839788936135fb565b6001600160601b03935090604061382e9262ffffff8816815260076020522086614754565b921691936136bc565b506001600160601b0360045460601c1615156135ae565b94935050949362ffffff9150169384158015906139fe575b61387557505090915090600090565b6138ad61388b6105da601354976106b9896126fb565b670de0b6b3a76400006138a66138a0896126fb565b85612721565b0490613147565b9481613965575b505060206138f960009260105480613929575b506111708760018060a01b03601954169261073560018060a01b036015541661072789604051958693338c860161284f565b03925af180156107a55761390c57509190565b6139249060203d60201161079e5761078f8183612785565b509190565b613954816107dc61394761394061395c958d614c5d565b809c61312b565b9a6106b96011548461312b565b601754613147565b601755386138c7565b601954600080546015546139c0956020956001600160a01b03938416958416949290931692670de0b6b3a7640000916139a1916106b9906126fb565b049360405196879586948593633609c92960e11b855260048501613109565b03925af180156107a5576000926020926138f9926139e1575b5092506138b4565b6139f790843d861161079e5761078f8183612785565b50386139d9565b50801515613866565b5062ffffff80851614156135a1565b50600161359b565b91906000908190613a2d613fc4565b90926060925b6001600160601b0381169081151580613d58575b80613d49575b15613c1b57808680613c04575b60009015613bd6575060015490600454936001600160601b038560601c1660025495613a8f6001600160601b038816836130e9565b926001600160601b03841611918215613bcd57849788935b15613b4457505050613ada9060008051602061505a833981519152936002546001600160601b0361362e83828416612879565b92613ae86136518288614e4c565b0390a191935b8296600014613b285750916136f56136db613b0d93613b1396956130e9565b92612899565b92613b1c613fc4565b91909394929094613a33565b61374a62ffffff9161373061375195613b139897999b956130e9565b909192506001600160601b031916600255806001600160601b031960055416176005556107d06107d38202916107d38184041490151702156137f257600160601b600160c01b03199091166107d090910460601b600160601b600160c01b03161760045560008051602061505a83398151915291613ada9086906103eb6137e56137e088612709565b83978893613aa7565b6001600160601b039350906040613bfb9262ffffff8816815260076020522086614754565b92169193613aee565b506001600160601b0360045460601c161515613a5a565b95925050955062ffffff91925016938415801590613d40575b613c4357505090915090600090565b613c5961388b6105da601354976106b9896126fb565b9481613cc6575b505060206138f960009260105480613ca6575b506111708760018060a01b03601954169261073560018060a01b03601554166107276001604051958693338c860161284f565b613954816107dc613947613940613cbd958d614c5d565b60175538613c73565b60195460008054601554613d02956020956001600160a01b03938416958416949290931692670de0b6b3a7640000916139a1916106b9906126fb565b03925af180156107a5576000926020926138f992613d23575b509250613c60565b613d3990843d861161079e5761078f8183612785565b5038613d1b565b50801515613c34565b5062ffffff8085161415613a4d565b5062ffffff891662ffffff85161015613a47565b8060081c9061ffff821680600052600b60205260406000205490600160ff84161b821790818303613da1575050505050600090565b600052600b60205260406000205515613dbc575b5050600190565b60101c60ff9081166000818152600a6020526040902080546001949093169390931b821790925515613def575b80613db5565b60ff600191161b6009541760095538613de9565b8060081c9061ffff821680600052600e60205260406000205490600160ff84161b821790818303613e38575050505050600090565b600052600e60205260406000205515613e52575050600190565b60101c60ff9081166000818152600d6020526040902080546001949093169390931b821790925515613e845780613db5565b60ff600191161b600c5417600c5538613de9565b805460281c64ffffffffff169182613ecb57815464ffffffffff191664ffffffffff8216178255613ec891612b85565b90565b613ec891612b85565b80546001600160a01b031660a09290921b6001600160a01b031916919091179055565b9260016128de94612af964ffffffffff86818086604051613f1781612754565b3381526001600160601b03602082019b168b52612ae46001600160601b0384604084019c169c8d8d5285606085019860008a5262ffffff608087019d168d5260a086019d8e52166000526006602052604060002093858060a01b0390868060a01b0390511616858060a01b0319855416178455511682613ed4565b60018060a01b031680638b78c6d8195460008051602061503a833981519152600080a3801560ff1b17638b78c6d81955565b613fcc614d7e565b600154909190600081156140665750670de0b6b3a7640000613ffa62ffffff9283600f5460901c1690612721565b0416915b62ffffff811662ffffff810361402c57505062ffffff8216156140215760019190565b6000915062ffffff90565b62ffffff8492941690816140435750505060009190565b919391818118818311021862ffffff160361405f575060019190565b6000925090565b905091613ffe565b614076613358565b9060035460001981146000146140ec575062ffffff915b62ffffff8116806140b457505062ffffff828116146140ac5760019190565b600091508190565b62ffffff849294169062ffffff82036140d05750505060009190565b919391818118818310021862ffffff160361405f575060019190565b670de0b6b3a764000061410b62ffffff9283600f5460901c1690612721565b04169161408d565b62ffffff906001600160601b0380600f5460301c1692839216931692838102938185041490151702156137f257808204910615150162ffffff81101561415b5762ffffff1690565b630b25243160e01b60005260046000fd5b9064ffffffffff8116156141935764ffffffffff1664ffffffffff19825416179055600090565b50805469ffffffffffffffffffff19169055600190565b8060081c9061ffff821680600052600e60205260406000205490600160ff84161b1982168092036141de5750505050600090565b600052600e60205280604060002055156141f9575050600190565b60ff9060101c169081600052600d602052600160ff60406000205492161b191681600052600d60205280604060002055156142345780613db5565b60ff600191161b19600c5416600c5538613de9565b8060081c9061ffff821680600052600b60205260406000205490600160ff84161b19821680920361427d5750505050600090565b600052600b6020528060406000205515614298575050600190565b60ff9060101c169081600052600a602052600160ff60406000205492161b191681600052600a60205280604060002055156142d35780613db5565b60ff600191161b196009541660095538613de9565b908060081c9061ffff821660028401816000528060205260406000205491600160ff85161b19831680930361432257505050505050600090565b600052602052806040600020551561433d575b505050600190565b60101c60ff9081166000818152600185810160205260409091208054949093161b199092169081905515614372575b80614335565b60ff600191161b198154169055388061436c565b9164ffffffffff90818316156143aa575b16156143a1575050565b6128de91612b85565b8181168219855416178455614397565b90919260609064ffffffffff8454165b6001600160601b03861680151580614744575b156147175760009164ffffffffff6001604082841695868152600660205220015460281c169083600052600660205260406000205460a01c928360009111600014614711575061442d838a6130e9565b985b6000916001600160601b038b161594856146fd575b506000868152600660205260408120600181015490546145229260689290921c60ff1615916001600160a01b03919091169088156146e7575084915b89600052600660205262ffffff60016040600020015460501c1691816000146146d5576015546001600160a01b0316935b82156146af576144c18482615007565b935b6060931561468957506127106145006144f761094860018060a01b0360145416946001600160601b036105d36012546126fb565b60115490612721565b04905b81614655575b50506107276107359293604051958693602085016127fd565b94801561462c575b6145f7575b506000858152600660205260409020805460019190910154670de0b6b3a7640000605082901c62ffffff16818102989360689390931c60ff1615926001600160a01b0316918115918a04141715610e2b576001600160601b0360008051602061505a8339815191529560e0958f946145c084966145ba6145f09e62ffffff600f5460901c1690612734565b936130e9565b946040519788526020880152604087015260608601521660808401523360a08401521660c0820152a19693612899565b91946143ca565b6001600160601b038316614624575b5084600052600660205261461e826040600020613ed4565b3861452f565b925038614606565b508315801561452a575085600052600660205264ffffffffff600160406000200154161561452a565b6107359350906146836107279261467560405193849287602085016127fd565b03601f198101835282612785565b92614509565b6015546001600160a01b031691612710916146a8916144f79190615007565b0490614503565b6146cf6109486146c06012546126fb565b6001600160601b038416612721565b936144c3565b6014546001600160a01b0316936144b1565b808a604092526006602052205460a01c91614480565b61470a91935082906130e9565b9138614444565b9861442f565b5061472d8164ffffffffff93969795949761416c565b50161561473957509190565b61392490600c6142e8565b5064ffffffffff821615156143dd565b90919260609064ffffffffff8454165b6001600160601b0386168015158061499d575b156149705760009164ffffffffff6001604082841695868152600660205220015460281c169083600052600660205260406000205460a01c92836000911160001461496a57506147c7838a6130e9565b985b6000916001600160601b038b16159485614956575b506000868152600660205260408120600181015490546148599260689290921c60ff1615916001600160a01b03919091169088156146e75750849189600052600660205262ffffff60016040600020015460501c1691816000146146d5576015546001600160a01b03169382156146af576144c18482615007565b94801561492d575b6148f8575b506000858152600660205260409020805460019190910154670de0b6b3a7640000605082901c62ffffff16818102989360689390931c60ff1615926001600160a01b0316918115918a04141715610e2b576001600160601b0360008051602061505a8339815191529560e0958f946145c084966145ba6148f19e62ffffff600f5460901c1690612734565b9194614764565b6001600160601b038316614925575b5084600052600660205261491f826040600020613ed4565b38614866565b925038614907565b5083158015614861575085600052600660205264ffffffffff6001604060002001541615614861565b61496391935082906130e9565b91386147de565b986147c9565b506149868164ffffffffff93969795949761416c565b50161561499257509190565b6139249060096142e8565b5064ffffffffff82161515614777565b90600354906005546001600160601b038116600454946149d66001600160601b038716836130e9565b926001600160601b0384166001600160601b038316109283600014614c5457829788945b15614b6d57505050916001600160601b03614a3f60e09360008051602061505a8339815191529560045484614a3183828416612879565b1690851916176004556130e9565b6015549097908290614af5906001600160a01b03166000670de0b6b3a7640000614a8a614a7f614a718789168f612721565b87600f5460301c1690612734565b6106b96013546126fb565b0460609060018060a01b0360145416612710614ac66144f7614ab8614ab06012546126fb565b8b8d16612721565b8a600f5460301c1690612734565b0480614b3a575b505091546040519391926107359285926107279291906001600160a01b0316602085016127fd565b97614b0b8360018060a01b0360005416966130e9565b90604051956000875260208701526001604087015260608601521660808401523360a08401521660c0820152a1565b84546040516107359550610727939092614b6792849261467592916001600160a01b0316602085016127fd565b92614acd565b6001600160c01b031916606083901b600160601b600160c01b031617600455919250906107d0808202918015908304909114176107d302156137f257806107d3806001600160601b039304910615150116906001600160601b031916176005556103eb84028481046103eb1485151715610e2b576101f48101809111610e2b576103e89004600355600254916001600160601b038316916103eb6103e88402936103e88186041490151702156137f257614a3f876001600160601b039260008051602061505a83398151915296846103eb60e09804169085191617600255886001556130e9565b849788946149fa565b818102918115918304141761271002156137f257612710808204910615150190565b600190910160ff1690811c9081614c9857505060001990565b614ca360ff92614ca8565b011690565b6000908060801b80614d5c575b508060401b80614d4f575b508060201b80614d42575b508060101b80614d35575b508060081b80614d28575b508060041b80614d1b575b508060021b80614d0e575b5060011b614d06575b60ff0390565b600101614d00565b6002915091019038614cf7565b6004915091019038614cec565b6008915091019038614ce1565b6010915091019038614cd6565b6020915091019038614ccb565b6040915091019038614cc0565b91505060809038614cb5565b81810291811591830414178202156137f2570490565b61ffff600052600b602052614d9960ff604060002054614f22565b60018101614e3f575060ff600052600a602052614dbc60ff604060002054614f22565b60018101614e1e5750614dd260ff600954614f22565b60018101614de2575062ffffff90565b80600052600a60205260ff614dfb604060002054614f50565b169060081b1780600052600b60205262ffffff60ff613242604060002054614f50565b61ff001780600052600b60205262ffffff60ff613242604060002054614f50565b62ffff001762ffffff1690565b90613ec89160018060a01b036014541691600091612710614ec2670de0b6b3a7640000614eb8614a7f610948614e98610948614e896012546126fb565b6001600160601b038a16612721565b97606099506001600160601b0360018060a01b0360155416981690612721565b0460115490612721565b0480614eef575b50506000546040519361073592859261072792906001600160a01b0316602085016127fd565b6000546040519394506107359392614f1a92849261467592906001600160a01b0316602085016127fd565b919038614ec9565b60001990910160ff90811681031690811b80614f4057505060001990565b614f4b60ff91614f50565b160390565b600091906001600160801b038111614ffc575b806001600160401b0360019211614ff0575b63ffffffff8111614fe4575b61ffff8111614fd8575b60ff8111614fcc575b600f8111614fc0575b60038111614fb4575b11614fad57565b9060010190565b6002938401931c614fa6565b6004938401931c614f9d565b6008938401931c614f94565b6010938401931c614f8b565b6020938401931c614f81565b6040938401931c614f75565b60809250821c614f63565b612da29062ffffff613ec89316612ba756fe360894a13ba1a3210667c828492db98dca3e2076cc3735a920a3ca505d382bbc8be0079c531659141344cd1fd0a4f28419497f9722a3daafe3b4186f6b6457e006029dfae141718336c21b1bb8cd746dc87a38baa63c413c40fa24b807b7cc05de65ec26e567cef1936a693231b33b08ce40fca66ce0e78b38d938048c7a0891a2646970667358221220ef8581391abe690a07f0444f3b8e47232f33afb6df3cc1f2686f347a5360398464736f6c634300081a0033",
  "linkReferences": {},
  "deployedLinkReferences": {}
}