{
    "_format": "hh-sol-artifact-1",
    "contractName": "Router",
    "sourceName": "contracts/Router.sol",
    "abi": [
        {
            "anonymous": false,
            "inputs": [
                {
                    "indexed": false,
                    "internalType": "uint8",
                    "name": "version",
                    "type": "uint8"
                }
            ],
            "name": "Initialized",
            "type": "event"
        },
        {
            "anonymous": false,
            "inputs": [
                {
                    "indexed": false,
                    "internalType": "address",
                    "name": "baseAsset",
                    "type": "address"
                },
                {
                    "indexed": false,
                    "internalType": "address",
                    "name": "quoteAsset",
                    "type": "address"
                },
                {
                    "indexed": false,
                    "internalType": "address",
                    "name": "market",
                    "type": "address"
                }
            ],
            "name": "MarketRegistered",
            "type": "event"
        },
        {
            "anonymous": false,
            "inputs": [
                {
                    "indexed": false,
                    "internalType": "address",
                    "name": "baseAsset",
                    "type": "address"
                },
                {
                    "indexed": false,
                    "internalType": "address",
                    "name": "quoteAsset",
                    "type": "address"
                },
                {
                    "indexed": false,
                    "internalType": "address",
                    "name": "market",
                    "type": "address"
                }
            ],
            "name": "MarketUpdated",
            "type": "event"
        },
        {
            "anonymous": false,
            "inputs": [
                {
                    "indexed": true,
                    "internalType": "address",
                    "name": "previousOwner",
                    "type": "address"
                },
                {
                    "indexed": true,
                    "internalType": "address",
                    "name": "newOwner",
                    "type": "address"
                }
            ],
            "name": "OwnershipTransferred",
            "type": "event"
        },
        {
            "inputs": [
                {
                    "internalType": "address[]",
                    "name": "_marketAddresses",
                    "type": "address[]"
                },
                {
                    "internalType": "bool[]",
                    "name": "_isBuy",
                    "type": "bool[]"
                },
                {
                    "internalType": "bool[]",
                    "name": "_nativeSend",
                    "type": "bool[]"
                },
                {
                    "internalType": "address",
                    "name": "_debitToken",
                    "type": "address"
                },
                {
                    "internalType": "address",
                    "name": "_creditToken",
                    "type": "address"
                },
                {
                    "internalType": "uint256",
                    "name": "_amount",
                    "type": "uint256"
                },
                {
                    "internalType": "uint256",
                    "name": "_minAmountOut",
                    "type": "uint256"
                }
            ],
            "name": "anyToAnySwap",
            "outputs": [
                {
                    "internalType": "uint256",
                    "name": "_amountOut",
                    "type": "uint256"
                }
            ],
            "stateMutability": "nonpayable",
            "type": "function"
        },
        {
            "inputs": [
                {
                    "internalType": "address",
                    "name": "_baseAssetAddress",
                    "type": "address"
                },
                {
                    "internalType": "address",
                    "name": "_quoteAssetAddress",
                    "type": "address"
                },
                {
                    "internalType": "uint96",
                    "name": "_sizePrecision",
                    "type": "uint96"
                },
                {
                    "internalType": "uint24",
                    "name": "_pricePrecision",
                    "type": "uint24"
                },
                {
                    "internalType": "uint24",
                    "name": "_tickSize",
                    "type": "uint24"
                },
                {
                    "internalType": "uint96",
                    "name": "_minSize",
                    "type": "uint96"
                },
                {
                    "internalType": "uint96",
                    "name": "_maxSize",
                    "type": "uint96"
                },
                {
                    "internalType": "uint256",
                    "name": "_takerFeeBps",
                    "type": "uint256"
                },
                {
                    "internalType": "uint256",
                    "name": "_makerFeeBps",
                    "type": "uint256"
                },
                {
                    "internalType": "address",
                    "name": "oldImplementation",
                    "type": "address"
                },
                {
                    "internalType": "bool",
                    "name": "old",
                    "type": "bool"
                }
            ],
            "name": "computeAddress",
            "outputs": [
                {
                    "internalType": "address",
                    "name": "proxy",
                    "type": "address"
                }
            ],
            "stateMutability": "view",
            "type": "function"
        },
        {
            "inputs": [
                {
                    "internalType": "enum IOrderBook.OrderBookType",
                    "name": "_type",
                    "type": "uint8"
                },
                {
                    "internalType": "address",
                    "name": "_baseAssetAddress",
                    "type": "address"
                },
                {
                    "internalType": "address",
                    "name": "_quoteAssetAddress",
                    "type": "address"
                },
                {
                    "internalType": "uint96",
                    "name": "_sizePrecision",
                    "type": "uint96"
                },
                {
                    "internalType": "uint24",
                    "name": "_pricePrecision",
                    "type": "uint24"
                },
                {
                    "internalType": "uint24",
                    "name": "_tickSize",
                    "type": "uint24"
                },
                {
                    "internalType": "uint96",
                    "name": "_minSize",
                    "type": "uint96"
                },
                {
                    "internalType": "uint96",
                    "name": "_maxSize",
                    "type": "uint96"
                },
                {
                    "internalType": "uint256",
                    "name": "_takerFeeBps",
                    "type": "uint256"
                },
                {
                    "internalType": "uint256",
                    "name": "_makerFeeBps",
                    "type": "uint256"
                }
            ],
            "name": "deployProxy",
            "outputs": [
                {
                    "internalType": "address",
                    "name": "proxy",
                    "type": "address"
                }
            ],
            "stateMutability": "nonpayable",
            "type": "function"
        },
        {
            "inputs": [
                {
                    "internalType": "address",
                    "name": "_owner",
                    "type": "address"
                },
                {
                    "internalType": "address",
                    "name": "_marginAccount",
                    "type": "address"
                },
                {
                    "internalType": "address",
                    "name": "_implementation",
                    "type": "address"
                }
            ],
            "name": "initialize",
            "outputs": [],
            "stateMutability": "nonpayable",
            "type": "function"
        },
        {
            "inputs": [],
            "name": "owner",
            "outputs": [
                {
                    "internalType": "address",
                    "name": "",
                    "type": "address"
                }
            ],
            "stateMutability": "view",
            "type": "function"
        },
        {
            "inputs": [],
            "name": "renounceOwnership",
            "outputs": [],
            "stateMutability": "nonpayable",
            "type": "function"
        },
        {
            "inputs": [
                {
                    "internalType": "address",
                    "name": "newOwner",
                    "type": "address"
                }
            ],
            "name": "transferOwnership",
            "outputs": [],
            "stateMutability": "nonpayable",
            "type": "function"
        },
        {
            "inputs": [
                {
                    "internalType": "address",
                    "name": "newImplementation",
                    "type": "address"
                }
            ],
            "name": "upgradeImplementation",
            "outputs": [],
            "stateMutability": "nonpayable",
            "type": "function"
        },
        {
            "inputs": [
                {
                    "internalType": "address[]",
                    "name": "proxies",
                    "type": "address[]"
                }
            ],
            "name": "upgradeMultipleProxies",
            "outputs": [],
            "stateMutability": "nonpayable",
            "type": "function"
        },
        {
            "inputs": [
                {
                    "internalType": "address",
                    "name": "",
                    "type": "address"
                }
            ],
            "name": "verifiedMarket",
            "outputs": [
                {
                    "internalType": "uint24",
                    "name": "pricePrecision",
                    "type": "uint24"
                },
                {
                    "internalType": "uint96",
                    "name": "sizePrecision",
                    "type": "uint96"
                },
                {
                    "internalType": "address",
                    "name": "baseAssetAddress",
                    "type": "address"
                },
                {
                    "internalType": "uint256",
                    "name": "baseAssetDecimals",
                    "type": "uint256"
                },
                {
                    "internalType": "address",
                    "name": "quoteAssetAddress",
                    "type": "address"
                },
                {
                    "internalType": "uint256",
                    "name": "quoteAssetDecimals",
                    "type": "uint256"
                },
                {
                    "internalType": "uint24",
                    "name": "tickSize",
                    "type": "uint24"
                },
                {
                    "internalType": "uint96",
                    "name": "minSize",
                    "type": "uint96"
                },
                {
                    "internalType": "uint96",
                    "name": "maxSize",
                    "type": "uint96"
                },
                {
                    "internalType": "uint256",
                    "name": "takerFeeBps",
                    "type": "uint256"
                },
                {
                    "internalType": "uint256",
                    "name": "makerFeeBps",
                    "type": "uint256"
                }
            ],
            "stateMutability": "view",
            "type": "function"
        }
    ],
    "bytecode": "0x60808060405234601557614763908161001b8239f35b600080fdfe6080604052600436101561001257600080fd5b6000803560e01c80631b1b9e71146114f15780633801b73814610beb5780635f71a07c14610b1e578063715018a614610ac357806383f94db714610a6e5780638da5cb5b14610a47578063c0c53b8b146108b4578063dd44783e146106e8578063f2fde38b146106415763ffa5210a1461008b57600080fd5b346104735760e03660031901126104735760043567ffffffffffffffff811161063d576100bc903690600401611715565b60243567ffffffffffffffff8111610639576100dc903690600401611715565b9260443567ffffffffffffffff8111610635576100fd903690600401611715565b94606435956001600160a01b03871680970361063157608435956001600160a01b03871680970361062d5760a435908998600182106105e9578185036105a55760208b916064604051809481937f23b872dd0000000000000000000000000000000000000000000000000000000083523360048401523060248401528860448401525af1801561059a5761057d575b5095949392919089905b8782106102a1578a8a8a60c435821061023757602083916044604051809481937fa9059cbb0000000000000000000000000000000000000000000000000000000083523360048401528760248401525af1801561022c57602093506101ff575b50604051908152f35b61021e90833d8511610225575b61021681836116f3565b8101906117a5565b50826101f6565b503d61020c565b6040513d85823e3d90fd5b608460405162461bcd60e51b815260206004820152602860248201527f526f757465723a20536c6970706167652065786365656473206578706563746560448201527f642076616c7565210000000000000000000000000000000000000000000000006064820152fd5b9091929394959698506102b5828a886117bd565b356001600160a01b03811680910361057957808b52606560205260408b2090604051916102e1836116c0565b80549062ffffff8216908185526001600160601b03602086019360181c1683526001600160a01b036001820154166040860152600281015491606086019283526001600160a01b036003830154166080870152600760048301549260a088019384526001600160601b03600582015462ffffff811660c08b0152818160181c1660e08b015260781c166101008901526006810154610120890152015461014087015215610535578b958f92956020966044956103bd6103ac8f8f8f8f92836103b1926103ac926117bd565b6117e3565b1561052e57879d6117bd565b156104885750506103e16103ed9362ffffff9593866103e794511691519450611a02565b91611a2b565b90611a39565b1660405194859384927f2aa9fbdc0000000000000000000000000000000000000000000000000000000084526004840152600160248401525af190811561047d578a91610447575b50975b95949392919060010188610196565b905060203d8111610476575b61045d81836116f3565b6020826000928101031261047357505138610435565b80fd5b503d610453565b6040513d8c823e3d90fd5b5190516001600160601b0395506104ac9450926103e792506103e191861690611a02565b1660405194859384927fcae22ee60000000000000000000000000000000000000000000000000000000084526004840152600160248401525af190811561047d578a916104fb575b5097610438565b905060203d8111610527575b61051181836116f3565b60208260009281010312610473575051386104f4565b503d610507565b899d6117bd565b606460405162461bcd60e51b815260206004820152601760248201527f526f757465723a20496e76616c6964206d61726b6574210000000000000000006044820152fd5b8a80fd5b6105959060203d6020116102255761021681836116f3565b61018c565b6040513d8d823e3d90fd5b606460405162461bcd60e51b815260206004820152601d60248201527f526f757465723a2053697a6573206c656e677468206d69736d617463680000006044820152fd5b606460405162461bcd60e51b815260206004820152601b60248201527f526f757465723a204e6f206d61726b65747320696e20696e70757400000000006044820152fd5b8880fd5b8780fd5b8580fd5b8380fd5b5080fd5b50346104735760203660031901126104735761065b611651565b6106636118f2565b6001600160a01b0381161561067e5761067b9061194a565b80f35b608460405162461bcd60e51b815260206004820152602660248201527f4f776e61626c653a206e6577206f776e657220697320746865207a65726f206160448201527f64647265737300000000000000000000000000000000000000000000000000006064820152fd5b5034610473576020366003190112610473576004359067ffffffffffffffff821161047357366023830112156104735781600401359167ffffffffffffffff83116108a0578260051b906040519361074360208401866116f3565b8452602460208501928201019036821161063957602401915b81831061087c57505050805b82518110156108785781806001600160a01b0360208460051b87010151166001600160a01b03606654168260405160208101927f3659cfe60000000000000000000000000000000000000000000000000000000084526024820152602481526107d26044826116f3565b51925af13d15610873573d67ffffffffffffffff811161085f5760405190610804601f8201601f1916602001836116f3565b81528360203d92013e5b1561081b57600101610768565b606460405162461bcd60e51b815260206004820152601660248201527f526f757465723a2055706772616465204661696c6564000000000000000000006044820152fd5b602484634e487b7160e01b81526041600452fd5b61080e565b5080f35b82356001600160a01b038116810361089c5781526020928301920161075c565b8480fd5b602482634e487b7160e01b81526041600452fd5b5034610473576060366003190112610473576108ce611651565b6108d661166c565b906108df611682565b83549160ff8360081c161593848095610a3a575b8015610a23575b156109b95760ff19841660011786556001600160a01b0393849261094691876109a8575b5061093860ff895460081c1661093381611991565b611991565b6109413361194a565b61194a565b166001600160a01b03196067541617606755166001600160a01b031960665416176066556109715780f35b61ff001981541681557f7f26b83ff96e1f2b6a682f133852f6798a09c465da95921460cefb3847402498602060405160018152a180f35b61ffff19166101011788553861091e565b608460405162461bcd60e51b815260206004820152602e60248201527f496e697469616c697a61626c653a20636f6e747261637420697320616c72656160448201527f647920696e697469616c697a65640000000000000000000000000000000000006064820152fd5b50303b1580156108fa5750600160ff8516146108fa565b50600160ff8516106108f3565b503461047357806003193601126104735760206001600160a01b0360335416604051908152f35b503461047357602036600319011261047357610a88611651565b610a906118f2565b6001600160a01b036066549116906001600160a01b0381168214610abf576001600160a01b0319161760665580f35b8280fd5b5034610473578060031936011261047357610adc6118f2565b806001600160a01b036033546001600160a01b03198116603355167f8be0079c531659141344cd1fd0a4f28419497f9722a3daafe3b4186f6b6457e08280a380f35b5034610473576020366003190112610473576040610160916001600160a01b03610b46611651565b1681526065602052208054906001600160a01b03600182015416906001600160601b0360028201546001600160a01b036003840154166004840154906005850154926007600687015496015496856040519962ffffff81168b5260181c1660208a015260408901526060880152608087015260a086015262ffffff811660c0860152818160181c1660e086015260781c16610100840152610120830152610140820152f35b503461047357610140366003190112610473576003600435101561047357610c1161166c565b610c19611682565b90606435916001600160601b038316830361063957610c366116ae565b9260a4359462ffffff8616860361047357610c4f611698565b60e435956001600160601b0387168703610abf576004356001036114e857610c93835b6004356002036114e15784905b89858c868a610124359661010435966117f0565b604051989061040c610ca8602082018c6116f3565b808b52611a5a60208c01396001600160a01b03606654169960209a610d398c610cfb60405191610cd881846116f3565b8a8352610ced60405193849283019687611769565b03601f1981018352826116f3565b8d604051938492610d296020610d1a858701998a815193849201611746565b85019151809385840190611746565b010103601f1981018352826116f3565b80511561149e57516001600160a01b03929187f51697881561145a576001600160a01b036067541660405190816128c881011067ffffffffffffffff6128c884011117611446576128c8611e6683396001600160a01b038a81166128c88401908152908a168d8201526040810191909152606081018b905260c060808201819052810187905260e060a082018190528101879052819003610100019086f093841561143b576004356001036113cc5760125b600435600203611360576012905b6033546001600160a01b0316986004356001036113595788995b600435600203611352578d8a5b6001600160a01b0360675416913b1561134e578f90918c93926040519e8f947fc3848717000000000000000000000000000000000000000000000000000000008652600486015260043560248601526001600160a01b031660448501528660648501526001600160a01b031660848401528660a484015260c48301526001600160601b03841660e483015262ffffff8a1661010483015262ffffff89166101248301526001600160601b0387166101448301526001600160601b03881661016483015261010435610184830152610124356101a48301526001600160a01b038b166101c483015281835a926101e493f1801561134357918c8f928f9897969594938e9461132a575b8c9d5060409c9a9b9c519b610f3c8d6116c0565b62ffffff168c52808c01916001600160601b0316825260408c01926001600160a01b0316835260608c0193845260808c01946001600160a01b0316855260a08c0195865260c08c019862ffffff16895260e08c01966001600160601b031687526101008c01976001600160601b031688526101208c0199610104358b526101408d019b610124358d52526065905260408d209a5162ffffff1662ffffff1662ffffff198c5416178b55516001600160601b0316611024908b906effffffffffffffffffffffff00000082549160181b16906effffffffffffffffffffffff0000001916179055565b516001600160a01b031660018a01906001600160a01b031681546001600160a01b031916179055516002890155516001600160a01b031660038801906001600160a01b031681546001600160a01b03191617905551600487015560058601925162ffffff1662ffffff1662ffffff19845416178355516001600160601b03166110d89083906effffffffffffffffffffffff00000082549160181b16906effffffffffffffffffffffff0000001916179055565b5181549060781b7affffffffffffffffffffffff00000000000000000000000000000016907fffffffffff000000000000000000000000ffffffffffffffffffffffffffffff161790555160068301555190600701556001600160a01b0381163b1561063d57816001600160a01b036004829360405194859384927f7660b153000000000000000000000000000000000000000000000000000000008452165af1801561125457908291611315575b50506001600435036112ba575b60026004350361125f575b6001600160a01b0360675416803b1561063d578180916024604051809481937f01aef3490000000000000000000000000000000000000000000000000000000083528a60048401525af180156112545761123f575b50507fb313430391c48e1ec63b9cf14dcd61b818b9ae83982f1d4e0e0ad01147af5cd0916001600160a01b0360609281604051931683521685820152836040820152a1604051908152f35b61124a8280926116f3565b61047357806111f4565b6040513d84823e3d90fd5b60405163095ea7b360e01b815284600482015260001960248201528581604481856001600160a01b0388165af180156112545761129d575b5061119f565b6112b390863d88116102255761021681836116f3565b5038611297565b60405163095ea7b360e01b815284600482015260001960248201528581604481856001600160a01b0389165af18015611254576112f8575b50611194565b61130e90863d88116102255761021681836116f3565b50386112f2565b8161131f916116f3565b610473578038611187565b999a9b909c81611339916116f3565b9a99988c90610f28565b6040513d8b823e3d90fd5b8b80fd5b8d8c610e20565b8b99610e13565b60405163313ce56760e01b81528c816004818b6001600160a01b038f165af19081156113c1578891611394575b5090610df9565b90508c81813d83116113ba575b6113ab81836116f3565b8101031261063157513861138d565b503d6113a1565b6040513d8a823e3d90fd5b60405163313ce56760e01b81528b816004818a6001600160a01b038f165af19081156114305787916113ff575b50610deb565b90508b81813d8311611429575b61141681836116f3565b810103126114255751386113f9565b8680fd5b503d61140c565b6040513d89823e3d90fd5b6040513d87823e3d90fd5b602487634e487b7160e01b81526041600452fd5b60648a6040519062461bcd60e51b82526004820152601960248201527f437265617465323a204661696c6564206f6e206465706c6f79000000000000006044820152fd5b60648c6040519062461bcd60e51b825280600483015260248201527f437265617465323a2062797465636f6465206c656e677468206973207a65726f6044820152fd5b8690610c7f565b610c9386610c72565b5034610473576101603660031901126104735761150c611651565b61151461166c565b604435906001600160601b0382168203610639576064359262ffffff8416840361089c576115406116ae565b60a4356001600160601b03811681036114255761155b611698565b9161012435966001600160a01b038816880361062d576101443596871515880361164d579560559895610d299561161095600b9a956115a7956115f89e9b610104359660e435966117f0565b9461040c94604051926115bd60208801856116f3565b8684526020840196611a5a88391561163b575b610ced60209a8b93604051906115e686836116f3565b81526040519283918683019586611769565b604051958694610d1a858701998a9251928391611746565b51902090604051916040830152848201523081520160ff8153206001600160a01b0360405191168152f35b506001600160a01b03606654166115d0565b8980fd5b600435906001600160a01b038216820361166757565b600080fd5b602435906001600160a01b038216820361166757565b604435906001600160a01b038216820361166757565b60c435906001600160601b038216820361166757565b6084359062ffffff8216820361166757565b610160810190811067ffffffffffffffff8211176116dd57604052565b634e487b7160e01b600052604160045260246000fd5b90601f8019910116810190811067ffffffffffffffff8211176116dd57604052565b9181601f840112156116675782359167ffffffffffffffff8311611667576020808501948460051b01011161166757565b60005b8381106117595750506000910152565b8181015183820152602001611749565b90916001600160a01b03606093168252604060208301526117998151809281604086015260208686019101611746565b601f01601f1916010190565b90816020910312611667575180151581036116675790565b91908110156117cd5760051b0190565b634e487b7160e01b600052603260045260246000fd5b3580151581036116675790565b97959391969492906001600160a01b0381166001600160a01b038a16116000146118ec5797965b6040519760208901996001600160601b03199060601b168a526001600160601b03199060601b16603489015260a01b6001600160a01b031916604888015260e81b7fffffff000000000000000000000000000000000000000000000000000000000016605487015260e81b7fffffff000000000000000000000000000000000000000000000000000000000016605786015260a01b6001600160a01b031916605a85015260a01b6001600160a01b031916606684015260728301526092820152609281526118e660b2826116f3565b51902090565b96611817565b6001600160a01b0360335416330361190657565b606460405162461bcd60e51b815260206004820152602060248201527f4f776e61626c653a2063616c6c6572206973206e6f7420746865206f776e65726044820152fd5b6001600160a01b0380603354921691826001600160a01b0319821617603355167f8be0079c531659141344cd1fd0a4f28419497f9722a3daafe3b4186f6b6457e0600080a3565b1561199857565b608460405162461bcd60e51b815260206004820152602b60248201527f496e697469616c697a61626c653a20636f6e7472616374206973206e6f74206960448201527f6e697469616c697a696e670000000000000000000000000000000000000000006064820152fd5b81810292918115918404141715611a1557565b634e487b7160e01b600052601160045260246000fd5b604d8111611a1557600a0a90565b8115611a43570490565b634e487b7160e01b600052601260045260246000fdfe608060405261040c80380380610014816101f7565b9283398101906040818303126101f25780516001600160a01b038116918282036101f2576020810151906001600160401b0382116101f257019183601f840112156101f25782519261006d61006885610232565b6101f7565b938085526020850195602082840101116101f25785602061008e930161024d565b813b15610197577f360894a13ba1a3210667c828492db98dca3e2076cc3735a920a3ca505d382bbc80546001600160a01b031916821790557fbc7cd75a20ee27fd9adebab32041f755214dbc6bffa90cc0225b39da2e5c2d3b600080a281511580159061018f575b610109575b60405160e890816103248239f35b60008061017e9461011a60606101f7565b94602786527f416464726573733a206c6f772d6c6576656c2064656c65676174652063616c6c6020870152660819985a5b195960ca1b60408701525190845af43d15610187573d9161016e61006884610232565b9283523d6000602085013e610270565b503880806100fb565b606091610270565b5060006100f6565b60405162461bcd60e51b815260206004820152602d60248201527f455243313936373a206e657720696d706c656d656e746174696f6e206973206e60448201526c1bdd08184818dbdb9d1c9858dd609a1b6064820152608490fd5b600080fd5b6040519190601f01601f191682016001600160401b0381118382101761021c57604052565b634e487b7160e01b600052604160045260246000fd5b6001600160401b03811161021c57601f01601f191660200190565b60005b8381106102605750506000910152565b8181015183820152602001610250565b919290156102d25750815115610284575090565b3b1561028d5790565b60405162461bcd60e51b815260206004820152601d60248201527f416464726573733a2063616c6c20746f206e6f6e2d636f6e74726163740000006044820152606490fd5b8251909150156102e55750805190602001fd5b6044604051809262461bcd60e51b825260206004830152610315815180928160248601526020868601910161024d565b601f01601f19168101030190fdfe6080604052361560605760008073ffffffffffffffffffffffffffffffffffffffff7f360894a13ba1a3210667c828492db98dca3e2076cc3735a920a3ca505d382bbc5416368280378136915af43d6000803e15605b573d6000f35b3d6000fd5b60008073ffffffffffffffffffffffffffffffffffffffff7f360894a13ba1a3210667c828492db98dca3e2076cc3735a920a3ca505d382bbc5416368280378136915af43d6000803e15605b573d6000f3fea2646970667358221220529c46dc2685610d4148ba108dedaf284c6832e1ac24db588ebcefbae40d465d64736f6c634300081a003361014080604052346105e0576128c8803803809161001d82856105e5565b833981019060c0818303126105e05761003581610608565b9161004260208301610608565b9261004f60408401610608565b9161005c60608501610608565b60808501519094906001600160401b0381116105e0578261007e91830161061c565b60a08201519092906001600160401b0381116105e05761009e920161061c565b815190916001600160401b0382116104dd5760035490600182811c921680156105d6575b60208310146104bd5781601f849311610566575b50602090601f83116001146104fe576000926104f3575b50508160011b916000199060031b1c1916176003555b8051906001600160401b0382116104dd5760045490600182811c921680156104d3575b60208310146104bd5781601f84931161044d575b50602090601f83116001146103e5576000926103da575b50508160011b916000199060031b1c1916176004555b670de0b6b3a764000060055560808190526001600160a01b03168015801594906103d15760405163313ce56760e01b8152602081600481865afa801561031d5760ff916000916103b2575b505b1660a05260c08190526001600160a01b0316938415801593906103a95760405163313ce56760e01b81526020816004818a5afa801561031d5760ff9160009161037a575b505b1660e0526001600160a01b03908116610100819052941661012052610329575b506102b5575b60405161220b90816106bd8239608051818181610bb001528181610d370152611a4a015260a05181505060c051818181610c2801528181610fe50152818161135a0152611aae015260e05181505061010051818181610bd80152818161122701528181611a2701528181611eca0152611fac0152610120518181816105dd01528181610f6d015281816119b80152611cd80152f35b6000916044602092604051948593849263095ea7b360e01b84526004840152811960248401525af1801561031d576102ee575b80610220565b61030f9060203d602011610316575b61030781836105e5565b8101906106a4565b50386102e8565b503d6102fd565b6040513d6000823e3d90fd5b602060009160446040518094819363095ea7b360e01b8352886004840152811960248401525af1801561031d571561021a576103739060203d6020116103165761030781836105e5565b503861021a565b61039c915060203d6020116103a2575b61039481836105e5565b81019061068b565b386101f8565b503d61038a565b60ff60126101fa565b6103cb915060203d6020116103a25761039481836105e5565b386101b2565b60ff60126101b4565b015190503880610151565b600460009081528281209350601f198516905b818110610435575090846001959493921061041c575b505050811b01600455610167565b015160001960f88460031b161c1916905538808061040e565b929360206001819287860151815501950193016103f8565b60046000529091507f8a35acfbc15ff81a39ae7d344fd709f28e8600b4aa8c65c6b64bfe7fe36bd19b601f840160051c810191602085106104b3575b90601f859493920160051c01905b8181106104a4575061013a565b60008155849350600101610497565b9091508190610489565b634e487b7160e01b600052602260045260246000fd5b91607f1691610126565b634e487b7160e01b600052604160045260246000fd5b0151905038806100ed565b600360009081528281209350601f198516905b81811061054e5750908460019594939210610535575b505050811b01600355610103565b015160001960f88460031b161c19169055388080610527565b92936020600181928786015181550195019301610511565b60036000529091507fc2575a0e9e593c00f959f8c92f12db2869c3395a3b0502d05e2516446f71f85b601f840160051c810191602085106105cc575b90601f859493920160051c01905b8181106105bd57506100d6565b600081558493506001016105b0565b90915081906105a2565b91607f16916100c2565b600080fd5b601f909101601f19168101906001600160401b038211908210176104dd57604052565b51906001600160a01b03821682036105e057565b81601f820112156105e0578051906001600160401b0382116104dd5760405192610650601f8401601f1916602001856105e5565b828452602083830101116105e05760005b82811061067657505060206000918301015290565b80602080928401015182828701015201610661565b908160209103126105e0575160ff811681036105e05790565b908160209103126105e0575180151581036105e0579056fe6080604052600436101561001b575b361561001957600080fd5b005b60003560e01c806301e1d11414610a5e57806306fdde031461099f578063095ea7b31461097957806318160ddd1461095b57806323b872dd14610923578063313ce5671461090757806339509351146108b4578063488bd7b01461087a5780634cdad5061461083d57806370a08231146108035780637660b153146105955780637a7af70d1461057c5780638dbdbe6d1461054457806394bf804d146104ef57806395d89b41146103e7578063a457c2d714610328578063a9059cbb146102f7578063b3d7f6b9146102bd578063b460af9414610213578063ba087652146101645763dd62ed3e0361000e573461015f57604036600319011261015f57610120610ac2565b6001600160a01b03610130610ad8565b911660005260016020526001600160a01b03604060002091166000526020526020604060002054604051908152f35b600080fd5b3461015f5761017236610b04565b6001600160a01b0381169182600052600060205260406000205484116101c0576040936101a49333036101b05761178a565b82519182526020820152f35b6101bb8133856114cc565b61178a565b608460405162461bcd60e51b815260206004820152602660248201527f4b757275414d4d5661756c743a2072656465656d206d6f7265207468616e2062604482015265616c616e636560d01b6064820152fd5b3461015f5761022136610b04565b6001600160a01b038116918260005260006020526040600020548411610253576040936101a49333036101b05761178a565b608460405162461bcd60e51b815260206004820152602860248201527f4b757275414d4d5661756c743a207769746864726177206d6f7265207468616e60448201527f2062616c616e63650000000000000000000000000000000000000000000000006064820152fd5b3461015f57602036600319011261015f5760406102ed6101a46004356102e1610b93565b93906002549083611cb0565b9260025491611cb0565b3461015f57604036600319011261015f5761031d610313610ac2565b602435903361156a565b602060405160018152f35b3461015f57604036600319011261015f57610341610ac2565b6024359033600052600160205260406000206001600160a01b0382166000526020526040600020549180831061037d5761031d92039033611392565b608460405162461bcd60e51b815260206004820152602560248201527f45524332303a2064656372656173656420616c6c6f77616e63652062656c6f7760448201527f207a65726f0000000000000000000000000000000000000000000000000000006064820152fd5b3461015f57600036600319011261015f5760405160006004548060011c906001811680156104e5575b6020831081146104d1578285529081156104ad575060011461044d575b6104498361043d81850382610b71565b60405191829182610a79565b0390f35b91905060046000527f8a35acfbc15ff81a39ae7d344fd709f28e8600b4aa8c65c6b64bfe7fe36bd19b916000905b8082106104935750909150810160200161043d61042d565b91926001816020925483858801015201910190929161047b565b60ff191660208086019190915291151560051b8401909101915061043d905061042d565b602484634e487b7160e01b81526022600452fd5b91607f1691610410565b604036600319011261015f576040610525610508610ad8565b61053761052f600435610519610b93565b95906002549083611cb0565b9460025491611cb0565b918284610d32565b5082519182526020820152f35b606036600319011261015f576044356001600160a01b038116810361015f57610574602091602435600435610d32565b604051908152f35b3461015f57602061057461058f36610aee565b90611718565b3461015f57600036600319011261015f576040517f90c9427c000000000000000000000000000000000000000000000000000000008152610160816004816001600160a01b037f0000000000000000000000000000000000000000000000000000000000000000165afa80156107f75760009081928291839184918591868791889389918a91610720575b506001600160a01b039897969492899694926effffffffffffffffffffffff00000092600d55600c557fffffffffff0000000000000000000000000000000000000000000000000000007affffffffffffffffffffffff00000000000000000000000000000062ffffff600b5493169560781b169116179160181b161717600b55600a551673ffffffffffffffffffffffffffffffffffffffff1960095416176009556008551673ffffffffffffffffffffffffffffffffffffffff1960075416176007556effffffffffffffffffffffff00000062ffffff60065492169260181b16906effffffffffffffffffffffffffffff19161717600655600080f35b9a50505050505050505050610160823d82116107ef575b816107456101609383610b71565b810103126107ec575061075781610cfa565b906001600160a01b0361076c60208301610d0a565b9161077960408201610d1e565b938260608301519261078d60808201610d1e565b9260a0820151916107a060c08201610cfa565b916effffffffffffffffffffffff0000006107bd60e08401610d0a565b6107ca6101008501610d0a565b610120850151610140909501519b9c939b939a96975095909493929150610620565b80fd5b3d9150610737565b6040513d6000823e3d90fd5b3461015f57602036600319011261015f576001600160a01b03610824610ac2565b1660005260006020526020604060002054604051908152f35b3461015f57602036600319011261015f57604060006101a460043561086f610863610b93565b91906002549084611c9a565b935060025491611c9a565b3461015f5760206108a461088d36610aee565b919061089a61089a610b93565b9260025490611cb0565b8181109082180218604051908152f35b3461015f57604036600319011261015f5761031d6108d0610ac2565b33600052600160205260406000206001600160a01b03821660005260205261090060406000206024359054610cd7565b9033611392565b3461015f57600036600319011261015f57602060405160128152f35b3461015f57606036600319011261015f5761031d61093f610ac2565b610947610ad8565b604435916109568333836114cc565b61156a565b3461015f57600036600319011261015f576020600254604051908152f35b3461015f57604036600319011261015f5761031d610995610ac2565b6024359033611392565b3461015f57600036600319011261015f5760405160006003548060011c90600181168015610a54575b6020831081146104d1578285529081156104ad57506001146109f4576104498361043d81850382610b71565b91905060036000527fc2575a0e9e593c00f959f8c92f12db2869c3395a3b0502d05e2516446f71f85b916000905b808210610a3a5750909150810160200161043d61042d565b919260018160209254838588010152019101909291610a22565b91607f16916109c8565b3461015f57600036600319011261015f5760406101a4610b93565b91909160208152825180602083015260005b818110610aac575060409293506000838284010152601f8019910116010190565b8060208092870101516040828601015201610a8b565b600435906001600160a01b038216820361015f57565b602435906001600160a01b038216820361015f57565b604090600319011261015f576004359060243590565b606090600319011261015f57600435906024356001600160a01b038116810361015f57906044356001600160a01b038116810361015f5790565b610160810190811067ffffffffffffffff821117610b5b57604052565b634e487b7160e01b600052604160045260246000fd5b90601f8019910116810190811067ffffffffffffffff821117610b5b57604052565b60405163d4fac45d60e01b81523060048201526001600160a01b037f0000000000000000000000000000000000000000000000000000000000000000811660248301527f0000000000000000000000000000000000000000000000000000000000000000169190602081604481865afa9081156107f757600091610ca5575b5060405163d4fac45d60e01b81523060048201527f00000000000000000000000000000000000000000000000000000000000000006001600160a01b0316602482015292602090849060449082905afa9283156107f757600093610c7557509190565b9092506020813d602011610c9d575b81610c9160209383610b71565b8101031261015f575190565b3d9150610c84565b90506020813d602011610ccf575b81610cc060209383610b71565b8101031261015f575138610c12565b3d9150610cb3565b91908201809211610ce457565b634e487b7160e01b600052601160045260246000fd5b519062ffffff8216820361015f57565b51906001600160601b038216820361015f57565b51906001600160a01b038216820361015f57565b9091907f00000000000000000000000000000000000000000000000000000000000000009060006001600160a01b03831661135857815b34106113145784610d78611cce565b60025491929091156111835750610dba610da9610d986005548488611cb0565b610da3600a5461175c565b9061173c565b610db460085461175c565b9061176a565b96871161111957610dd6610dce8886611718565b809897611e4d565b86156110af5760405191610de983610b3e565b6006549062ffffff821684526001600160601b03602085019260181c1682526001600160a01b0360075416604085015260085490606085019182526001600160a01b03600954166080860152610e9b610e91610e8b600a5460a0890198818a526001600160601b03600b5462ffffff811660c0840152818160181c1660e084015260781c16610100820152600c54610120820152610140600d5491015261175c565b8361173c565b610db4845161175c565b610ec58a610ebf8a610eb989610eb4600554809861173c565b61176a565b95610cd7565b93610cd7565b958796889660001914611054575b5050508060030290600382040361102c57610ef86001600160601b038451168261173c565b610f02835161175c565b90816107d302916107d383040361104057916001600160601b0380610f2d610f3794610f3e9661176a565b169551169061173c565b915161175c565b90816107d002916107d083040361102c576001600160601b0391610f619161176a565b16916001600160a01b037f00000000000000000000000000000000000000000000000000000000000000001690813b15611028579185608492819594604051978896879563e55bb4e360e01b875260048701526024860152604485015260648401525af1801561101d5791610fe3939161100a96959361100d575b5050611eab565b7f000000000000000000000000000000000000000000000000000000000000000090611eab565b90565b8161101791610b71565b38610fdc565b6040513d84823e3d90fd5b8580fd5b602486634e487b7160e01b81526011600452fd5b602488634e487b7160e01b81526011600452fd5b849750839650610eb49291610db4610f3761107693610da361107b995161175c565b61173c565b926103e884026103eb6103e88683041486151702156110a2576103eb900492388080610ed3565b63ad251c2786526004601cfd5b608460405162461bcd60e51b815260206004820152602b60248201527f4b757275414d4d5661756c743a20494e53554646494349454e545f4c4951554960448201527f444954595f4d494e5445440000000000000000000000000000000000000000006064820152fd5b608460405162461bcd60e51b815260206004820152602960248201527f4b757275414d4d5661756c743a20494e53554646494349454e5420544f4b454e60448201527f20535550504c49454400000000000000000000000000000000000000000000006064820152fd5b959661118f908561173c565b8070ffffffffffffffffffffffffffffffffff1060071b81811c68ffffffffffffffffff1060061b1781811c64ffffffffff1060051b1781811c62ffffff1060041b1760b56201000083831c019160011c1b0260121c8082040160011c8082040160011c8082040160011c8082040160011c8082040160011c8082040160011c8082040160011c808092041090036001600160a01b037f00000000000000000000000000000000000000000000000000000000000000001680156112d0576002546103e8810180911161102c5760025580855284602052604085206103e88154019055847fddf252ad1be2c89b69c2b068fc378daa952ba7f163c4a11628f55a4df523b3ef60206040516103e88152a36103e71981019081116112bc57806112b79198611e4d565b610dd6565b602484634e487b7160e01b81526011600452fd5b606460405162461bcd60e51b815260206004820152601f60248201527f45524332303a206d696e7420746f20746865207a65726f2061646472657373006044820152fd5b606460405162461bcd60e51b815260206004820152601e60248201527f4b757275414d4d5661756c743a20696e636f727265637420616d6f756e7400006044820152fd5b7f00000000000000000000000000000000000000000000000000000000000000006001600160a01b031661138c5784610d69565b80610d69565b6001600160a01b0316908115611463576001600160a01b03169182156113f95760207f8c5be1e5ebec7d5bd14f71427d1e84f3dd0314c0f7b2291e5b200ac8c7c3b925918360005260018252604060002085600052825280604060002055604051908152a3565b608460405162461bcd60e51b815260206004820152602260248201527f45524332303a20617070726f766520746f20746865207a65726f20616464726560448201527f73730000000000000000000000000000000000000000000000000000000000006064820152fd5b608460405162461bcd60e51b8152602060048201526024808201527f45524332303a20617070726f76652066726f6d20746865207a65726f2061646460448201527f72657373000000000000000000000000000000000000000000000000000000006064820152fd5b906001600160a01b038216600052600160205260406000206001600160a01b03821660005260205260406000205492600019840361150b575b50505050565b8084106115265761151d930391611392565b38808080611505565b606460405162461bcd60e51b815260206004820152601d60248201527f45524332303a20696e73756666696369656e7420616c6c6f77616e63650000006044820152fd5b6001600160a01b03169081156116ae576001600160a01b0316918215611644578160005260006020526040600020548181106115f157817fddf252ad1be2c89b69c2b068fc378daa952ba7f163c4a11628f55a4df523b3ef9260209285600052600084520360406000205584600052600082526040600020818154019055604051908152a3565b608460405162461bcd60e51b815260206004820152602660248201527f45524332303a207472616e7366657220616d6f756e7420657863656564732062604482015265616c616e636560d01b6064820152fd5b608460405162461bcd60e51b815260206004820152602360248201527f45524332303a207472616e7366657220746f20746865207a65726f206164647260448201527f65737300000000000000000000000000000000000000000000000000000000006064820152fd5b608460405162461bcd60e51b815260206004820152602560248201527f45524332303a207472616e736665722066726f6d20746865207a65726f20616460448201527f64726573730000000000000000000000000000000000000000000000000000006064820152fd5b61173190611727611727610b93565b9260025490611c9a565b818110908218021890565b81810292918115918404141715610ce457565b91908203918211610ce457565b604d8111610ce457600a0a90565b8115611774570490565b634e487b7160e01b600052601260045260246000fd5b906117b4919392936000906001600160a01b036117bf6117a8610b93565b96906002549085611c9a565b956002549084611c9a565b96168015611c305780835282602052604083205491808310611bc6576020817fddf252ad1be2c89b69c2b068fc378daa952ba7f163c4a11628f55a4df523b3ef9286958587528684520360408620558060025403600255604051908152a3611825611cce565b6040519192919061183582610b3e565b6006549262ffffff841683526001600160601b03602084019460181c1684526001600160a01b03600754166040840152600854606084019081526001600160a01b036009541660808501526118e66118dc6118d6600a5460a08801978189526001600160601b03600b5462ffffff811660c0840152818160181c1660e084015260781c16610100820152600c54610120820152610140600d5491015261175c565b8861173c565b610db4835161175c565b61190c8b6119058b6118ff88610eb4600554809861173c565b9a61174f565b949861174f565b9460009560009560001914611b6e575b50505081600302916003830403610ce4576119416001600160601b038651168361173c565b61194b825161175c565b90816107d302916107d3830403610ce4576001600160601b0361197461198993610f379361176a565b16936001600160601b0360009851169061173c565b90816107d002916107d083040361102c576001600160601b03916119ac9161176a565b16916001600160a01b037f00000000000000000000000000000000000000000000000000000000000000001690813b15611028579185608492819594604051978896879563e55bb4e360e01b875260048701526024860152604485015260648401525af1801561101d57611b5a575b50506001600160a01b037f000000000000000000000000000000000000000000000000000000000000000016907f000000000000000000000000000000000000000000000000000000000000000090823b156107ec57604051627b8a6760e11b8152600481018690526001600160a01b0383166024820152818160448183885af1801561101d57908291611b45575b50507f000000000000000000000000000000000000000000000000000000000000000092803b15611b4157604051627b8a6760e11b8152600481018990526001600160a01b03851660248201529082908290604490829084905af1801561101d57611b2c575b505090611b2283611b2894938661206c565b8561206c565b9190565b611b37828092610b71565b6107ec5780611b10565b5080fd5b81611b4f91610b71565b6107ec578038611aaa565b81925090611b6791610b71565b3880611a1b565b849650839550610eb49291610db4610f3761107693610da3611b9199985161175c565b916103e883026103eb6103e8858304148515170215611bb8576103eb90049138808061191c565b63ad251c276000526004601cfd5b608460405162461bcd60e51b815260206004820152602260248201527f45524332303a206275726e20616d6f756e7420657863656564732062616c616e60448201527f63650000000000000000000000000000000000000000000000000000000000006064820152fd5b608460405162461bcd60e51b815260206004820152602160248201527f45524332303a206275726e2066726f6d20746865207a65726f2061646472657360448201527f73000000000000000000000000000000000000000000000000000000000000006064820152fd5b8181029181159183041417820215611bb8570490565b818102929181159184041417810215611bb857808204910615150190565b6001600160a01b037f000000000000000000000000000000000000000000000000000000000000000016906040517f51130ac6000000000000000000000000000000000000000000000000000000008152602081600481865afa9081156107f757600091611e07575b506001600160601b036107d39116026001600160601b038116908103610ce4576020600493604051948580927f474b848c0000000000000000000000000000000000000000000000000000000082525afa9283156107f757600093611dd1575b50611dbc611b28916001600160601b036003611db460085461175c565b92041661173c565b6001600160601b0360065460181c169061176a565b9092506020813d602011611dff575b81611ded60209383610b71565b8101031261015f575191611dbc611d97565b3d9150611de0565b90506020813d602011611e45575b81611e2260209383610b71565b8101031261015f576001600160601b03611e3e6107d392610d0a565b9150611d37565b3d9150611e15565b6001600160a01b03169081156112d0577fddf252ad1be2c89b69c2b068fc378daa952ba7f163c4a11628f55a4df523b3ef602082611e8f600094600254610cd7565b60025584845283825260408420818154019055604051908152a3565b6000916001600160a01b0381168381611f4e5750506001600160a01b037f00000000000000000000000000000000000000000000000000000000000000001690813b15611f4a57604051638340f54960e01b81523060048201526001600160a01b039190911660248201526044810183905291839183916064918391905af1801561101d57611f38575050565b611f43828092610b71565b6107ec5750565b8380fd5b606460209282604051917f23b872dd0000000000000000000000000000000000000000000000000000000083523360048401523060248401528760448401525af13d15601f3d11600186511416171615612028576001600160a01b037f00000000000000000000000000000000000000000000000000000000000000001690813b15611f4a57604051638340f54960e01b81523060048201526001600160a01b03919091166024820152604481019290925282908290606490829084905af1801561101d5761201b575050565b8161202591610b71565b50565b606460405162461bcd60e51b815260206004820152601460248201527f5452414e534645525f46524f4d5f4641494c45440000000000000000000000006044820152fd5b91906001600160a01b0316806121355750600080809381935af13d15612130573d67ffffffffffffffff8111610b5b57604051906120b4601f8201601f191660200183610b71565b8152600060203d92013e5b156120c657565b608460405162461bcd60e51b815260206004820152602d60248201527f4b757275414d4d5661756c743a206661696c656420746f207472616e7366657260448201527f206e617469766520746f6b656e000000000000000000000000000000000000006064820152fd5b6120bf565b600091826044926020956001600160a01b03604051947fa9059cbb00000000000000000000000000000000000000000000000000000000865216600485015260248401525af13d15601f3d116001600051141617161561219157565b606460405162461bcd60e51b815260206004820152600f60248201527f5452414e534645525f4641494c454400000000000000000000000000000000006044820152fdfea2646970667358221220368adbcc32692d6a0e19cb2c4c1db1ebec7c5bf9a7317794cc03b9c8f93903a264736f6c634300081a0033a2646970667358221220f7fb5923d239d350281cf22a3c2f5f3ad43a5d979fff4a56056a032c12ca466264736f6c634300081a0033",
    "linkReferences": {},
    "deployedLinkReferences": {}
}